:020000040000FA
:1000000000400020119501004D9501004F95010021
:1000100000000000000000000000000000000000E0
:1000200000000000000000000000000051950100E9
:1000300000000000000000005395010055950100EC
:1000400057950100C94F0100599C010057950100C7
:10005000579501000000000011960100579501001E
:100060008DD00000B5A10100CD9A01005795010087
:1000700057950100579501005795010057950100CC
:1000800057950100579501005795010057950100BC
:10009000579501007592010051920100C9D10000ED
:1000A000D9D10000579501000000000000000000B9
:1000B0000000000000000000000000000000000040
:1000C00010B5064C2378002B07D1054B002B02D02E
:1000D000044800E000BF0123237010BD2001002070
:1000E0000000000070950300044B10B5002B03D0F6
:1000F0000349044800E000BF10BDC04600000000F6
:100100002401002070950300164B002B00D1144BE6
:100110009D46402292029A1A924600218B460F4633
:100120001348144A121A29F05CFB0F4B002B00D025
:1001300098470E4B002B00D0984700200021040068
:100140000D000D48002802D00C4800E000BF21F04F
:1001500093F82000290029F0DEF820F0ABFFC0461C
:100160000000080000400020000000000000000027
:1001700018010020F02F0020000000000000000007
:100180000023F0B52F4E93B0040006A8150033608D
:10019000012701910AF0A8FB2F40031E34D1EA0683
:1001A0002CD511206268A16825F0AAF9040021006D
:1001B00026680124019A03A80AF062FFAB08002216
:1001C0003100234003A809F0CFFC0500032000F014
:1001D00071FB280024F05DFC0120404200F06AFB26
:1001E0000AF0A0FB002F24D02100174813F040FF95
:1001F0003C000121144813F03BFF1AE0AB06D6D5B2
:10020000200023F07EF8D1E70120404200F052FBAD
:10021000002F03D001210C4813F02AFF079802F0A9
:1002200057FB0A4905F0DEF8041E05D03468002F9C
:10023000DFD1200013B0F0BD0799054802F084FB20
:10024000F5E7C0463C0100207E080300DC9F020069
:100250005CCA020010B586B02021802402A824F0D8
:10026000D6FC64001E4827F05AF900231D4803936A
:1002700027F055F913F0E4FE0128F3D002280BD142
:10028000194827F04CF902A824F0E2FC01220020D2
:10029000164B1A7006B010BD032802D10023039339
:1002A000E8E7042804D0C1B202A824F00EFDE1E77B
:1002B0000F4827F034F9039B0193002B08D10A481B
:1002C00027F02DF902A824F0C3FC80204000E1E7CC
:1002D0001122012102A8FFF753FF2042C5D0D9E720
:1002E00080080300FF520300D02A0300D80000203A
:1002F0009B08030030B587B02021802502A824F098
:1003000086FC6D00384827F00AF9384827F007F9CD
:100310000024374902A8039424F067F801280AD181
:10032000344827F0FCF802A824F092FC2000324B5D
:100330001C7007B030BD022803D12E4827F0EFF81B
:10034000E0E7032801D12B48E0E7042808D1294839
:1003500027F0E5F802A824F07BFC80204000E8E7C5
:10036000052828D1254827F0DAF8039413F068FE11
:100370006B46C1B2D9710329E5D004290AD11D48C1
:1003800027F0CDF80121162202A8FFF7F9FE284236
:10039000BED0CEE702A824F098FC6B46DB790D2B8B
:1003A00003D1174827F0BBF8E0E76B460121D81DC1
:1003B00013F05EFEDAE7039B002BA9D002A824F01D
:1003C00072FC0FF021FE00280BD00A2102A824F0B5
:1003D0007CFC0C4902A824F008F80328B3D00428B8
:1003E000ECD10021CFE7C0469E080300D8080300E7
:1003F000FE080300D02A0300D800002003090300F0
:10040000330903003A090300F7B5CD1CAD00019094
:1004100028000E00170022F0A2FE2A000400064B5E
:1004200086600360019B390043600C3A0C3029F070
:10043000BCF92000FEBDC046709A0200F7B50D0061
:10044000110000220600009228001F000B4B10F044
:10045000D3F8102022F090FE041E08D1084B094A60
:10046000094C5A62002320002660A360FEBD3900BB
:10047000280001F00BF9E060F4E7C046FFFF000040
:10048000842E0020F4A602009C2E002010B5013816
:1004900010C901F0FBF8E060004810BDB0C40200D4
:1004A000F8B57F2553B204000E0017001540002B4D
:1004B0001BDB6B1E012B18D80B68586821F0C8FE97
:1004C0000100200024F0A8F9022D12D120001049CB
:1004D00024F0A2F9F368002B02D05A68002A0ED14A
:1004E00020000C4924F098F9F8BD022DEED0002D23
:1004F000F0D03A002000F16801F06CF8F4E7012A2E
:10050000F7D100222000996802F0FAF9ECE7C04622
:10051000195303007F080300C36803485A68002A80
:1005200000D098687047C046B0C40200136810B588
:100530001400002B0AD00D4B994206D10C4B526887
:100540009A4202D10023C380236010BD094B994217
:1005500001D1C368F8E7084B02689A42F5D1074B0E
:100560009942F2D1FFF7D8FF2060EEE71A020000AF
:10057000B0C4020022020000649F020002030000D7
:100580000EB4F0B5060086B010200B9D22F0F4FDED
:10059000041E0BD11A4B1B4A1B4C9E6118625A62F7
:1005A000200006B0F0BC08BC03B01847002106606C
:1005B0008160012001F06AF82521E0600600280032
:1005C00029F04BF9071E09D1280029F05EF93A00FD
:1005D0000100280005F080F8B060E1E7102102A8D2
:1005E00024F015FB29000CAA02A801920DF086FD4B
:1005F000064802A9E56805F039F8A860D0E7C046CA
:10060000842E0020F4A602009C2E0020D0A7020019
:1006100010B5830708D1074B02689A4204D1064AF5
:10062000C1680123914203D0044904F0DBFE0300BA
:10063000180010BD34C002003D040000A49B02005D
:1006400010B5040002F044F9034BC2689A4200D08E
:1006500024690023A36010BD3D040000F8B5160016
:100660001D0004000F0002F033F9154BC2689A42D6
:1006700000D02469A068002811D10C3022F07CFD44
:10068000A06000280AD003236360E288A168930079
:10069000CB180332E2801F605E609D60F8BDE38886
:1006A000A18802338B42F0DB03310122890022F062
:1006B00081FD0028F2D0A388A0600333A380E4E783
:1006C0003D04000070B5150004000E0002F000F9B2
:1006D000064BC2689A4200D02469A368002B02D15D
:1006E00033602B6070BDE2883260FAE73D040000A1
:1006F000F0B585B00C0005F011F803AA02A901902D
:10070000200002F06DFA029F039E3D001035AD00FF
:10071000280022F024FD04002C220021103029F0B2
:1007200060F8E7632700104B403D2360019B403792
:1007300063600E4B7519A3600D4BE3600D4B636155
:100740000D4BA3610D4BE3610D4B23620D4B6362B7
:100750000D4B6363AE4202D1200005B0F0BD01CE67
:1007600004F0DCFF01C7F5E734C002008D0700008C
:10077000F107000031160000CD160000B10700009F
:10078000C1170000B9150000FCA6020070B50C00EE
:1007900005000B6805495A6824F004F9216828000F
:1007A000220040310FF016F970BDC046C575030038
:1007B000136870B5002B12D10468E56B4034AB426E
:1007C00000D170BD9E00A659B14201D00133F6E7B9
:1007D000591CF6D002339B001B581360F1E7024905
:1007E000024824F0A2F9C0463F090300689B0200BA
:1007F000F0B585B003930B00029201910299C26B90
:100800005F180500974206D03B0026492648FFF7AF
:10081000B7FE0AF08FF80021380000F037FF019B87
:1008200004009E00320003990560083028F0BDFFE7
:100830003000029B08309A000021201828F0D1FFD8
:10084000029BFF18039B9E19019BBB4202D3200011
:1008500005B0F0BD306804F061FFEB6B020002935D
:1008600040239C460021AC44029B994204D10F498D
:100870000D48FFF785FECCE760468B00C0588242EA
:1008800001D00131F0E70131F1D0E3189968002976
:1008900001D00749ECE7726808369A60019B023381
:1008A0000193D1E75309030018A002008C0903004B
:1008B000AD09030010B50400431C02D00248FFF745
:1008C000BFFE024B1C6010BDAC2E00207C2E002011
:1008D000014B024A9A647047842E0020AC2E0020FF
:1008E000F0B587B0002807D1614B6248196823F042
:1008F00093FF614807B0F0BD0C68604B9C4251D13A
:100900000021080021F007FF0024050003905C4B44
:100910005A680192944215D300265A4A03A901202D
:1009200001F068FC039805AA04A921F00BFF049BC1
:1009300003339B080193019B4E4DB34210D1280015
:100940005149D4E79B680193019AE3009958002923
:1009500004D0042902D0280001F0EEFB0134D6E7D0
:100960003700059ABB00985805F0F6FA01002800F8
:1009700023F052FF019BFF18049B9F420CD21223CD
:100980001C1A002C06DD013CEBD328003F4923F064
:1009900043FFF8E71234F4E728003D4923F03CFF19
:1009A0000136C8E7200001F093FF8B2342689B00CB
:1009B0009A4200D16468200003F0CCFE061E98D154
:1009C0002C4D3449280023F027FF3100200001F08E
:1009D000B1FF200021F04FFF2F490200280023F033
:1009E000E1FFA30732D123682C4A93422BD1200088
:1009F00022F09CFC25F0CDFE00260400B04200D180
:100A000077E763689E4200D373E7A268F300D318C8
:100A10001F68002F15D05B6821492800019323F03F
:100A2000FBFE0021380001F085FF1E49280023F05D
:100A3000F3FE0021019801F07DFF2800144923F006
:100A4000EBFE0136DDE7184A934203D0200001F0A7
:100A50003FFF0400A06B002800D14AE7830700D0C5
:100A600047E7124B02689A4200D042E7C2E7C0460D
:100A7000040000205CCA0200B0C402003E15000061
:100A800090C302003CBE0200DC0903009B900300FF
:100A9000C40B0300000A0300080A030074C4020028
:100AA0009A900300180A030034C00200FCDD020023
:100AB00010B502F057F805491AF002FB03230200B3
:100AC00002209A43024B1043C01810BDE02E65422D
:100AD0000000808010B502F045F805491AF0F0FAE0
:100AE0000323020002209A43024B1043C01810BD9A
:100AF00035FA8E3C0000808010B502F033F8011CFE
:100B00001AF0C0FD024B002800D1024B180010BDA6
:100B1000FCCB0200F4CB020010B502F023F8440035
:100B200064080849201C1AF0ADFD002805D10549CC
:100B3000201C19F047FE002801D0034810BD0348CF
:100B4000FCE7C046FFFF7F7FF4CB0200FCCB020036
:100B500010B502F007F8034B034002201843024B84
:100B6000C01810BDFCFFFF7F0000808010B501F0B1
:100B7000F9FF440064080849201C1AF083FD00288E
:100B800007D10549201C19F013FE002801D10348A4
:100B900010BD0348FCE7C046FFFF7F7FFCCB02008F
:100BA000F4CB02001FB50023019301F0DBFF01A984
:100BB0001CF0B2FF032203000220074993430343C2
:100BC0005B180293019B934303435B1802A90393B1
:100BD00000F05CFD05B000BD0000808070B50D0028
:100BE00001F0C0FF041C280001F0BCFF1AF060FDFA
:100BF0000100201C1CF06CFF0323020002209A431A
:100C0000014B1043C01870BD000080801FB5002349
:100C1000019301F0A7FF01A91CF036FF0323022472
:100C20009843074B2043C0180290019822F04CFAD9
:100C300002A90390200000F029FD04B010BDC046B9
:100C40000000808070B50D0001F08CFF041C2800AE
:100C500001F088FF011C201C1DF026FA032302006E
:100C600002209A43014B1043C01870BD00008080E1
:100C700070B50D0001F076FF041C280001F072FF32
:100C8000C00FC307600040081843032302249843A1
:100C9000014B2043C01870BD0000808070B50D006E
:100CA00001F060FF041C280001F05CFF011C201C07
:100CB0001DF080F90323020002209A43014B1043E8
:100CC000C01870BD0000808010B501F04BFF1CF013
:100CD000F3FC0323020002209A43024B1043C01886
:100CE00010BDC0460000808010B501F03BFF1DF034
:100CF0000FF90323020002209A43024B1043C0184D
:100D000010BDC0460000808010B501F02BFF1DF023
:100D1000ADF80323020002209A43024B1043C0188F
:100D200010BDC0460000808010B501F01BFF1CF014
:100D3000FFFF0323020002209A43024B1043C01816
:100D400010BDC0460000808010B501F00BFF1CF004
:100D5000B1FF0323020002209A43024B1043C01844
:100D600010BDC0460000808010B501F0FBFE1CF0F5
:100D700009FE0323020002209A43024B1043C018CD
:100D800010BDC0460000808010B501F0EBFE1DF0E4
:100D900015F90323020002209A43024B1043C018A6
:100DA00010BDC0460000808070B50D0001F0DAFE75
:100DB000041C280001F0D6FE011C201C1DF05EFA68
:100DC0000323020002209A43014B1043C01870BD58
:100DD0000000808010B501F0C5FE0021041C19F050
:100DE000DDFC002802D007480BF0A8FE201C1DF0F7
:100DF000DDFB0323020002209A43034B1043C0187B
:100E000010BDC0461D0A03000000808070B50600BA
:100E100008680D0001F0A6FE0021041C19F0C8FCB2
:100E2000002802D018480BF089FE201C1DF0A4F900
:100E3000041C012E06D1032302209C432043134BA4
:100E4000C01870BD686801F08DFE0021051C19F006
:100E5000AFFC0028E6D1FE21281C890519F098FC7A
:100E6000002803D00A490B4823F05FFE281C1DF020
:100E700083F9011C201C19F059FF032302000220F2
:100E80009A431043DBE7C0461D0A03000000808040
:100E90002F0A0300CCA00200014B58687047C046DF
:100EA000842E0020014B18687047C046842E002015
:100EB000F0B5194F87B03B68050000200C00019386
:100EC00025F029FC38600090206823F0E2FD019BAA
:100ED00006003B60114F022D03D0A06801F0F8FC22
:100EE0000700210063680831A81E039300F0CEFBC1
:100EF000009B04900593002203AB032138000BF004
:100F0000FFF8074B04009E4203D00100300021F09F
:100F10002FFC200007B0F0BD842E002034C002005A
:100F2000B0C402001FB569460BF0E0F904002000D0
:100F30000BF03EFA002802D1044804B010BD01F0C5
:100F4000E9FE0028F3D10248F7E7C046FCCB0200D7
:100F5000F4CB02001FB569460BF0C8F9040020006D
:100F60000BF026FA002802D1044804B010BD01F0AD
:100F7000D1FE0028F3D00248F7E7C046F4CB0200C8
:100F8000FCCB020010B501F023FD034B002800D17B
:100F9000024B180010BDC046FCCB0200F4CB02008F
:100FA00037B501F079FD030001A87F2B05D8012199
:100FB0000370012204F090FB3EBD80219A090901D3
:100FC0008B420BD2402149420A4302703F221A4011
:100FD00080235B42134343704231EAE78024190BBC
:100FE0006402A3420ED22024644221430170802176
:100FF0005F344942224023400A43194381704270C2
:101000000321D6E788246403A34212D210249D0C46
:1010100064422C4304703F258024294064422A40C6
:101020002B40214322432343417082700421C3702B
:10103000BFE701480BF082FD400A0300F0B589B01C
:10104000019204000D0000222D490198029303F043
:10105000C1FB071E00D04768012C15D0A4002B1936
:10106000002401930094019B9D4223D02E68002F01
:1010700004D03100380023F013FD0600002C36D1D7
:101080002C6800960435EEE7286804A90BF02EF9C9
:1010900000240390009403980BF08AF9051E0CD1EC
:1010A000002C07D122001749019803F093FB002878
:1010B0001AD04468200009B0F0BD2E00002F04D0E3
:1010C0002900380023F0ECFC0600002C09D0310088
:1010D000009A02980BF03AFD0B4B834201D0250099
:1010E000009E2C000096D6E708480BF027FD310043
:1010F000009A02980BF02AFD034B8342C2D1BFE74E
:101100004E14000026120000FCCB0200610A03000E
:1011100037B501A9050004F035FF1E4B04002B4034
:10112000062B05D0AB072BD11B4B2A689A4227D13F
:101130002000019925F073F90190012823D10023A3
:10114000E3562078002B04DB012023785B00184352
:101150003EBD7F23013418403F3B034208D13F226C
:10116000237819009143802905D021F0ADFFEFE7E6
:1011700098435B10F1E78001134001341843EFE717
:10118000019B012BE0D0019A04490548FFF7F8F9CB
:1011900009F0D0FB070080FFD0A702007A0A030005
:1011A00018A00200F0B5150087B00022029003914C
:1011B0002800234903F00EFB0022040021492800E7
:1011C00003F008FB012305001F4E04930593002C38
:1011D00007D060681D4B984203D004A904F0D2FEEA
:1011E00006001B4C002D07D06868184B984203D0AE
:1011F00005A904F0C7FE04000025029B154F9D427F
:101200000AD1002321003800059A019300930AF0C7
:1012100041F90E4807B0F0BD002D07D00023310082
:101220003800049A019300930AF034F90399AB0053
:1012300000223800C95801F063FB0135DDE7C046E4
:10124000861600008E1200009B900300B0C40200BE
:10125000C40B03005CCA020010B5040086B06A46E5
:1012600002A810210CF03EFF01222100684601F087
:1012700047FB02A9024804F0F9F906B010BDC046C8
:10128000D0A7020070B50C68E30726D4A30703D1EA
:10129000174B22689A4220D0012820D9486801F0D3
:1012A000FBFB0600200001F05DFC051C30001AF07D
:1012B0001FFA011C0F481CF0E1FF011C041C281C34
:1012C00019F0FEFE1CF046FC211C19F02FFD032333
:1012D00002249843084B0443E418200070BD20000A
:1012E00001F040FC1CF036FC0DF094FB0400F4E728
:1012F00000D80200000020410000808030B50B00C3
:10130000140085B0012802D909480BF0DDFD094819
:101310000121C2680192019D0022A847220003908A
:1013200003A9012000F066FF039805B030BDC04658
:10133000B40A0300B4B7020013B50400080004F0B7
:10134000EDF96A46010020000AF052FF009B0248B6
:10135000002B00D1014816BDFCCB0200F4CB0200EB
:1013600037B50024022800D98C6848680D6804F05D
:10137000D5F90A4B0100002C00D0094B6A46280021
:101380009847009B002B07D001991C00002903D02F
:10139000180000F087FD040020003EBD55C200008B
:1013A000F1C1000070B504000800150004F0B6F9A2
:1013B0002A00010020000AF075FF014870BDC046F8
:1013C000B0C40200F8B50327060004003E40022E18
:1013D00016D10E4B0340062B12D0FF23DB05C51898
:1013E000BD430021281C19F0D9F9002806D080231C
:1013F0001B06ED18BD43064B3543EC182000F8BD25
:10140000200005F0A9FC0400F8E7C046070080FFB3
:10141000000080807FB50B00012803D100211868EF
:1014200001F088FA102102A823F0F1FB0C4902A870
:1014300022F0DBFF032804D10A4820F079FD09F0EF
:1014400079FA039B0193002B03D1042801D10648AC
:10145000F3E702A9054804F009F907B000BDC0464A
:101460007F080300849D0200E09B0200D0A70200D9
:1014700010B50AF075FF002804D1034820F058FD8C
:1014800009F058FA10BDC046649F020010B502284A
:1014900004D106C909300BF059FB10BD01490248BF
:1014A00023F043FBDF0A0300749E02007FB50D4D5D
:1014B0000400A84213D00C4E01220100300001F0BC
:1014C0001FFA0A49300023F0A7F904230293084BBE
:1014D0000321DB690748039402AA01939847280077
:1014E00004B070BDB0C402005CCA0200C40B0300AB
:1014F00074C402000CA40200F8B504000E00002819
:101500000ED1284B1D680021080021F004F90027A6
:101510000600BD4232D10025AC423ED13000F8BDBC
:101520000868830714D103681F4A93420DD121F044
:10153000FDFE0500306801F0CBF91C4BC2680024A9
:101540009A42E0D134680434DDE7194A934201D06D
:1015500001F0BEF9856B002DECD0164B2A689A423B
:10156000E8D00025E6E7EA68FB009958002904D096
:10157000042902D0300000F0DFFD0137AB68BB4228
:10158000F1D8C8E7A268EB009958002904D00429D3
:1015900002D0300000F0D0FD01356368AB42F1D8D5
:1015A000BCE7C046842E002074C40200894C0000B1
:1015B00034C00200FCDD0200044B88600B60044B69
:1015C00008004B600023CB607047C04650DF02002C
:1015D0001721020070B50E0011490400002523F008
:1015E0001BF97368AB420AD8012B03D120000D49C7
:1015F00023F012F920000C4923F00EF970BD002DE4
:1016000003D02000094923F007F93300A90008336B
:1016100001222000595801F073F90135E1E7C04675
:1016200061760300FC0A0300E3290300F90A0300C2
:1016300070B503000C0001281ED0022808D000203D
:10164000834204D14B680E48002B00D10D4870BD79
:1016500001230D4D62685E1C013B9A4203D80120B4
:101660006D002843F3E7B300E15802200AF0D4FCF0
:10167000401033002D18EDE7486840001843E6E7B6
:10168000FCCB0200F4CB0200F4A6020070B505000A
:101690000E000C48002D0FD0AC1CA400200021F03F
:1016A0005EFD094B45600360002E05D0020000235B
:1016B000083C0832A34200D170BDF158D150043328
:1016C000F8E7C046F4A60200FCA60200F0B5070049
:1016D0000E00140085B0142831D028D807282ED049
:1016E000122802D00025052826D1200001F0F0F8AC
:1016F0002E4903F077FE051E1ED073686268002134
:101700009818FFF7C3FF07003100736808379A0085
:1017100005000831380028F048F821007068636837
:10172000800038189A00083128F03FF804E00300E0
:10173000193B0025042B1DD9280005B0F0BD200061
:1017400003A901F0E7F9051EF6D00398184D00280B
:10175000F2DD736800215843FFF798FF05002B0066
:101760003000083300930421039B7268083021F095
:1017700001F8E1E7100001F0ABF80E4B426A9A4223
:1017800005D02000094921F0ACFA041E0CD023003A
:10179000310062683800009208337268083101F045
:1017A00011F8054D0028C7D1044DC5E7FCA602007D
:1017B000F4A60200B9150000FCCB0200F4CB020035
:1017C00030B5040085B0042A2FD103230D004068F2
:1017D0001D4019421FD1164B0A689A421BD101AA1B
:1017E00000F080FF002802D112480BF09BFB019B08
:1017F00002982900C01AFFF749FF050021006B6815
:1018000008319A00019B08309C00091927F0CDFF90
:10181000280005B030BD0A0000230100206801F057
:1018200015FA023080000559F2E70025F0E7C046BE
:10183000ACCB0200FE0A0300F0B50C001100002240
:1018400085B01E002000012300920EF0D5FE184D39
:10185000002C1ED03568AB0703D1164B2A689A427C
:1018600017D0102021F07BFC0021040030680AF022
:101870003DFD00250427039003980AF099FD061EFC
:101880000AD128002100FFF701FF0500200021F008
:1018900095FC280005B0F0BDAF4205D82000F90046
:1018A00021F07BFC04007F00AB001E510135E3E713
:1018B000F4A60200FCA60200F0B50E001100002202
:1018C00085B0B41C0700039330000D4B0092A400B8
:1018D0000EF092FE200021F042FC07600700050098
:1018E0004660039E083C08373419A64202D12800FE
:1018F00005B0F0BD002101CE0AF0F8FC01C7F4E705
:10190000FFFF0000044B88600B60044B08004B6035
:101910000023CB607047C04650DF0200AB210200BD
:1019200013B50400080001A903F010FF002C03D038
:10193000012C07D0002016BD019B0548002BFAD1D1
:101940000448F8E7019924F06AFD40002043F2E7DB
:10195000FCCB0200F4CB0200F0B585B00400080017
:1019600003A9150003F0F2FE0600002D07D10300C5
:10197000039A20002F4923F015F805B0F0BD039B12
:101980000200C318002101200193019B934206D855
:101990002727002900D0053F3A0027491AE013788D
:1019A000272B08D0223B5D426B41DBB20132002B7A
:1019B000EBD02727F0E700230100F7E7300024F001
:1019C000FAFC0500300024F012FD0600AF4205D1FC
:1019D0003A001A49200022F0E5FF14E018495C2D76
:1019E0000ED02B00203B5E2B01D82A00D5E71549ED
:1019F0000A2D05D014490D2D02D0092D0CD1134903
:101A0000200022F009FF019BB342D7D83A00200002
:101A1000094922F0C7FFB0E7FF2D02D82A000C4980
:101A2000D8E780232A000B495B029D42D2D30A49A2
:101A3000D0E7C0462F0B0300350B0300340B030027
:101A4000380B03003B0B03003E0B0300410B03006C
:101A5000440B03004B0B0300520B0300F7B51E00B1
:101A600008AB1D78294B0C001700984206D12B00BB
:101A70003200390001F0EAF82018FEBDF30715D551
:101A800076100196019BE719002B2ADA781E0021B7
:101A90003F260127844219D9002900D00193200054
:101AA000002DEAD11A491B4823F03FF8300001A964
:101AB00001F030F80028E5D1300020F0DCFE1649B6
:101AC00002001648FEF75CFD08F034FF0278B243CE
:101AD000802A01D039000133421E002BCDD01000E6
:101AE000D8E72000002101243F26B84204D3002972
:101AF00000D001933800D3E7013BBED32100013071
:101B00000278B243802AF0D10130F9E79CC002008C
:101B1000810B03000C9D0200590B030018A002006A
:101B2000F0B587B004000E00170000F0D1FE02A946
:101B30000500200003F00AFE0400042F4FD1B30774
:101B400034D1284B32689A4230D105AB300004AA18
:101B500003A922F0F4FF059B234FBB4204D0032BC3
:101B600002D022480BF0DEF9039B2600BB4207D0CF
:101B70000122210000922800029AFFF76FFF060061
:101B8000029A049BA118BB4206D0012128000091B3
:101B90002100FFF763FF01000E208E4204D88A1B4C
:101BA0002800310021F0E0F807B0F0BD002321004B
:101BB000029A009328003300FFF750FF0023C3561A
:101BC00001210278002B06DA4023012101E00131D6
:101BD0005B081342FBD1012203F07EFDE4E7002005
:101BE000E2E7C046ACCB0200B0C40200FE0A03002C
:101BF000074A03005069002806D042689A4204D878
:101C00009B1A04339B00185870470068F3E7C046DE
:101C1000842E002070B5144D04006B699868DB6851
:101C2000834215D30230C00021F0A6FA6B69002868
:101C300003D1986840000AF06BFF5A68D9680360C6
:101C40009B6852185B00836000234260C360686138
:101C50006A69D3685068591C04339B000138D1600D
:101C600040189C5070BDC046842E0020074B411880
:101C7000884204D3D8B2002800D1013070475A01FD
:101C8000D318027801305340F2E7C0460515000032
:101C9000034B044A5A6100229C331A607047C046C5
:101CA000842E0020CCA80200F0B585B007000E00FD
:101CB000FFF7DCFF164B02905C69002C01D120007D
:101CC00021E0230010330193019AE36815009B0083
:101CD000D3180393039B9D4201D32468EDE7286842
:101CE000029A0378934210D14378B3420DD1320067
:101CF0003900023027F04BFD002806D1019B6068B7
:101D0000ED1AAD10281805B0F0BD0435E2E7C04665
:101D1000842E0020F0B585B003900191FFF7C4FF39
:101D2000021E56D1304F019B9C373868DC1C0028BE
:101D300015D02D4D2C4EA4352B68A0363168E318F4
:101D40008B4229D9611821F035FA029000281DD163
:101D500002002968386821F02DFA029B3B602600BA
:101D6000802C00D28026300021F006FA1E4D2F0074
:101D70009C37386000282FD1200021F0FDF9260083
:101D80003860002828D120000AF0C2FE33681B19F1
:101D900033603B68002BE2D0134A1349A432136826
:101DA0009C310D68E41801990398ED181460FFF751
:101DB0005DFF019B03991A0028706B70A81C27F027
:101DC000F4FC019B2800E91800238B70FFF722FF29
:101DD0000200100005B0F0BD2B00A0331E600023F0
:101DE000A4352B60D8E7C046842E0020F7B51D002F
:101DF00000230F00160003600B6013602B60164B6E
:101E000000905C69002C02D0144B9C4204D13368D2
:101E10002A68D3182B60F7BD009B009A1B680193BA
:101E200001331360E2683B689B1822003B60E36863
:101E300010329B00D3189A4207D320000BF096FF74
:101E40002B68246818182860DCE702CA30684978D3
:101E5000033009183160EEE7842E0020CCA8020080
:101E60000C4B70B55C69002C02D00B4B9C4200D12E
:101E700070BD2600E36810369D007519AE4201D38F
:101E80002468F0E704CE05490232054822F08AFDB5
:101E9000F4E7C046842E0020CCA802009B0B030070
:101EA0005CCA020070B505000C200C0021F057F947
:101EB000024B45600360846070BDC046F8B4020008
:101EC000F0B5060087B000AFBA607B60F96000F043
:101ED000FBFBB06822F0D2FD3861B06822F0D4FD7F
:101EE00022F0CCFD032343433A699B189B001D005D
:101EF0007B6114352C2B2CD86B460735ED08ED0093
:101F00005B1B9D4600236C467B6100232000BA6862
:101F1000F968266063607B6809F050FE154D00216A
:101F20006B682000236173686B6001F0D3FC236948
:101F3000061E6B6013D1A3681D687B69002B04D05B
:101F4000200021F03BF9002E11D12800BD4607B03A
:101F5000F0BD280021F010F9041ED6D1CCE7386975
:101F60007B690330800020184568002BE8D12800E9
:101F700008F0E0FC842E00200123020030B51A4056
:101F8000040085B04510184216D126491500884234
:101F900012D0254988420FD0244A1D0090420BD010
:101FA000032302001A40184209D1214B01689942CB
:101FB00005D121F0C6F80500280005B030BD1D4B45
:101FC00025002340062B05D0002A08D11A4B226891
:101FD0009A4204D1200001A903F0D4FFEBE72000CE
:101FE00000F076FC154B984207D1FF23DB05E01883
:101FF0000323984319F05CFBDDE7114B984202D0B4
:10200000104B984206D16946200001AA00F0E8FD75
:10201000019DD1E70222200001A920F043FC002805
:10202000CAD0F5E7B0C40200F4CB0200FCCB02003A
:1020300000D80200070080FFD0A70200C4D8020029
:10204000FCA60200B4B70200F7B505000F00061E9B
:102050000092019300D046683800431E9841301822
:102060000430800021F07BF80C4B040003600C4B23
:102070005B684360009B8360019BC360002D05D0BB
:102080002900B2000831103027F08FFB002F02D05A
:102090000436B60037512000FEBDC04670B50200C0
:1020A000842E002070B5060010200D00140021F0D1
:1020B00056F8034B466085600360C46070BDC0463F
:1020C00034B50200002803D0012807D00020704753
:1020D0008B680448002BFAD10348F8E78B685B0053
:1020E0001843F4E7FCCB0200F4CB0200044B8860F9
:1020F0000B60044B08004B600023CB607047C04668
:1021000050DF02009F2502000021836870B5DA0FBE
:10211000D21852109B00043B8A4201DC054870BD76
:10212000C5688C002C19ED5826682560C4680131FB
:10213000E650F0E7B0C4020070B583680D00416856
:1021400004008B4211D3C900C06821F026F86368EF
:10215000E0605A00A3686260D21A0133013A9B0022
:1021600000219200C01827F03CFBA368E268591CCC
:102170009B000248A1609D5070BDC046B0C40200E3
:10218000F8B50700150083684C10002900DAE41840
:10219000002C0EDA00240C4E38003100FFF7CCFF83
:1021A000BB68013BFA689C4207DBA4003000A550E5
:1021B000F8BD9C42EFD91C00EDE7980011180439D6
:1021C00009681150EDE7C046B0C4020070B50025A3
:1021D000040085601021C06820F0DFFF042329007F
:1021E0001022E060636027F0FCFA014870BDC04631
:1021F000B0C4020030B50C0085B0104B02AD043104
:1022000000930138022301950EF026FA23680C4C46
:10221000996801290FD9D8680A4B029AC918890010
:102220004118A24200D100222D79074B002D00D188
:10223000064B20F0C2F9200005B030BDD8B6020030
:10224000B0C40200FFFFFF3FF4CB0200FCCB020052
:1022500070B50C680B00A1680200002903D1194970
:10226000194822F062FC2068012A27D05A6800230E
:1022700000F0ECFC0600E168A2688300C818013A8F
:1022800004330568A260921BC918920027F096FAE1
:102290000021A368E0689A001150616804290BD9F5
:1022A0005B00994208D94908E068890020F075FF71
:1022B0006368E0605B086360280070BD01225242E1
:1022C000D5E7C0467C2803000C9D020007B50090AE
:1022D00001910220694620F0D9F969460190022057
:1022E000FFF7B6FF00480EBDB0C4020070B50E0087
:1022F0000D490400002522F08FFAB368AB4204D8E0
:1023000020000A4922F088FA70BD002D03D0200079
:10231000074922F081FAF168AB00012220005958E8
:1023200000F0EEFA0135E8E79C2A0300227C030066
:10233000F90A030070B503230E0004000D001E40CF
:10234000194229D1174B0A689A4225D183688A68B5
:1023500099184368994210D904318900C06820F067
:102360001CFFAA68A368E0609B181A1D9B006260AE
:1023700031001022C01827F034FAA368E9689800E9
:10238000E3681818AB689A0027F00FFAAB68A268E8
:10239000D318A360044870BD2900200020F07FF905
:1023A000F8E7C046B4B70200B0C402000B4B70B5EA
:1023B000050003600C000800042900D204206860B6
:1023C000AC60800020F0CBFE6A68E860121BA400BD
:1023D00000219200001927F004FA70BDB4B7020082
:1023E0007FB50E001500122847D01ED8052824D02E
:1023F000002407281ED1100003A900F08BFB041E47
:1024000018D0039B002B01DA00230393B3680398D1
:10241000584320F05DF9C368040000930421039B36
:10242000B268F06820F0A6F904E00300193B00242C
:10243000042B28D9200004B070BD032300241A40C7
:102440001D42F7D11400194B2A689A42F2D18B68C9
:10245000AA68981820F03CF90400B368F1689A0063
:10246000C06827F0A2F9B068E36880001818AB686C
:10247000E9689A0027F099F9DCE711003000FFF7CE
:1024800059FF3400D6E793070DD1084B12689A42E2
:1024900009D1AB6800938A68EB68C96800F092F9CB
:1024A000034C0028C6D1034CC4E7C046B4B70200B1
:1024B000FCCB0200F4CB0200F0B5032704000E00B1
:1024C00010008BB00F40002A33D1002F2AD1654B6A
:1024D0000A689A4226D1A06804AA00F003F90028ED
:1024E00002D161480AF01EFD0599049BA268E068CC
:1024F0005D1A521A9B00890041189200C01827F0FB
:102500005DF9A368AA00E818E3688000181839008C
:10251000524227F066F9A3685D19A560534D280063
:102520000BB0F0BD07A9022007940896FFF790FEB4
:10253000F4E7042A2CD1A068002F1FD1494B0A6868
:102540009A421BD107AA00F0CDF8002806D1E16815
:10255000A06807AA20F021F90500E0E7079B08988A
:10256000C01A20F0B5F88368E1689A00079B05005F
:102570009B00C918C06827F018F9D0E700230100B4
:102580003200206800F062FBE3688000C558C6E7AF
:10259000364D002F60D1334B0A689A425CD103AAB2
:1025A00002A900F01DFB3100A06807AA00F09AF80C
:1025B000002896D0079B029A08999E18E06801911E
:1025C000761A002E27DDA368F1186368994206D9B0
:1025D000890020F0E2FDA368E0609B196360029A25
:1025E000079BA1689B18F21A52180899E0689B0093
:1025F000890041189200C01827F0E0F8029B039967
:102600009A00079B9800E368181827F0D7F8A3688A
:102610009E19A66083E79B000399C018920027F0DB
:10262000C4F80899A268E368521A890001930798D0
:102630005918029B9200C018019B8000181827F0BF
:10264000BDF8A368B200F018E36880003900524278
:10265000181827F0C6F8DAE702003100200020F051
:1026600078F85CE7ACCB02007F080300B0C402003E
:1026700010B50400082020F072FD024B0360446096
:1026800010BDC046F0B70200014BD8607047C0468D
:10269000842E0020034B82B0D86801ABC01A02B070
:1026A0007047C046842E0020014B18617047C04619
:1026B000842E00204E2110B502481FF03FFC08F088
:1026C00039F9C046289F020007B5054A01ABD16819
:1026D0001269CB1A9A4201D8FFF7ECFF07BDC0463A
:1026E000842E0020F0B585B005001600080003AB6D
:1026F00002AA01A922F023FA0398304FB84209D068
:10270000032807D000F0C8F9B060002804D12C4895
:102710000AF014FA0123B3600198B8421FD10024D3
:10272000B368A34200DC6C1E0298B8421BD10023A0
:10273000B2689A4200DD2B00B068002C1BDA2C191D
:1027400000D5C417002B22DAEB1801D501235B4218
:1027500000282FDA0133A34221DD631C1FE000F0C3
:102760009BF90400E0E700F097F9031EE4DBB26890
:10277000D20F8318E0E7002803DDA542E2D22C0047
:10278000E0E70028DED0A542DCD86C1EDAE79D42E7
:1027900000D22B0000280ADDA34200DA2300013812
:1027A000736043425841C0B2346005B0F0BD0028A8
:1027B000D1D1F4E70028EFD1F1E7C046B0C4020060
:1027C00090280300F0B506000C00170085B01B2808
:1027D00005D10A9A974209D0002005B0F0BD19280A
:1027E0001AD01C281AD00A9A0A9717001A00230038
:1027F00014000A9A0192BA4200D901971D000023E1
:102800000093009B019A93420AD10A9BBB4221D0BC
:102810000020BB4240411BE01A26EAE71D26E8E7FC
:102820000295039401CD02CC00F0E4F8002802D018
:10283000009B0133E4E71B2ECED0039B30001A68C7
:10284000029B19680AF082F9054BC01A43425841AD
:10285000C0B2C2E730001A38431E9841F8E7C046BC
:10286000FCCB0200F0B51E0085B0039018680D0087
:10287000019200F02DF8736807000293019B002479
:10288000022B0FD901232900B26800F0DFF9019B68
:102890000400032B06D0290001233800F26800F061
:1028A000D5F90500A54202D808480AF047F9039A6D
:1028B000A3000299D05800F09DF8002804D0012010
:1028C0006400204305B0F0BD0134EBE7AA28030003
:1028D00003000748DA070AD4064A07481A40062ABE
:1028E00005D0032205481A40022A00D01868704714
:1028F00000D80200070080FFD0A70200C4D8020061
:1029000070B50D0004001600FFF7DEFE2800FFF78B
:10291000DFFF8368002B04D0320029002000984795
:1029200070BD42680249200022F03CF8F8E7C0463A
:10293000C128030010B50A0001000248FFF7E0FFBC
:1029400010BDC0465CCA0200F7B5040008000E00C6
:102950001FF0FFFA00280FD06946300001AAFDF7EA
:10296000B1FE009B002B07D02000154921F054FF39
:10297000009BDD1E002D09DA310002222000FFF746
:10298000BFFF20000F4921F047FFF7BD019AAF00BC
:10299000D3195B68D25920000B4922F003F8019B40
:1029A000DF19BA68002A05D12000064921F034FF5A
:1029B000033DDFE72000054921F0F4FFF8E7C046BA
:1029C000C6280300C40B0300EA280300FF28030005
:1029D00010B50400FFF77CFF054B0069984203D057
:1029E000431E9841C0B210BD200020F058F9FAE70C
:1029F0000152000070B505000C0001208D4203D08B
:102A0000214B9D4201D1002070BD9942FBD0012392
:102A10001D4204D01942F6D12B000D001C002A00E3
:102A20001A4B1A40062A05D0AA0711D1184A29685C
:102A300091420DD12340062B05D0A307E3D1144BBF
:102A400022689A42DFD12100280003F04BFADBE72D
:102A50002340062BD7D0A30703D10D4B22689A42FF
:102A6000D1D02800FFF734FF8369002BCBD02200A0
:102A700029001B2098470028C5D0064BC01A4342A6
:102A80005841C0B2C0E7C046B0C40200070080FF92
:102A9000D0A70200FCCB0200104B10B5984219D011
:102AA0000F4A0123904217D0184201D0184110BD9F
:102AB000830706D10B4B02689A4202D104F074F9E5
:102AC000F5E71FF0D8FE084902000848FDF758FD59
:102AD00007F030FF0020EAE71800E8E7F4CB020037
:102AE000FCCB020000D802000829030018A0020055
:102AF00010B5C30705D4830706D1054B02689A4277
:102B000002D120F01EFB10BDFFF7C6FFFBE7C04659
:102B100000D80200104B70B50D000124984203D17B
:102B200000230B6022000AE00C4B984201D10C609C
:102B3000F8E702002240204203D040100860100055
:102B400070BD8307FBD1064B01689942F7D104F0B1
:102B50002BF92860E6E7C046F4CB0200FCCB02006C
:102B600000D80200184B10B5984228D0174B984255
:102B700027D0C30703D5401018F0BAFD10BD0323BA
:102B8000184206D1124A0168914202D120F0E2FABD
:102B9000F4E702001A40022A08D10E4A0240062A2F
:102BA00004D0FF22D20580189843E7E71FF063FEA8
:102BB000094902000948FDF7E3FC07F0BBFE0020CD
:102BC000DCE7FE208005D9E7F4CB0200FCCB020055
:102BD00000D80200070080FF2029030018A002008F
:102BE00010B583070CD103680A4CA34202D11FF031
:102BF000B2FA10BD084CA34202D11FF0A3FDF8E7C2
:102C00001FF039FE054902000548FDF7B9FC07F041
:102C100091FEC046FCA60200B4B702003A290300A8
:102C200018A0020013B50C0001A9FFF7D9FF019B02
:102C3000A34206D0220003490348FDF7A1FC07F098
:102C400079FE13BD5D29030090A00200F7B50600D0
:102C50000D0014001F00D3070FD554100194019BE1
:102C6000002B01DA5B190193019B002F1BD0002B75
:102C700015DA002301930198FEBD100001A9FFF7AA
:102C800049FF0028EBD1200075681FF0F4FD2A00F1
:102C900003000A490A48FDF773FC07F04BFEAB42FC
:102CA000E9D90195E7E7002B01DBAB42E3D372687A
:102CB00004490548FDF764FCEFE7C0468A29030094
:102CC00018A00200AE2903000C9D020010B50400FC
:102CD000830710D10D4B02689A420CD10C4B034074
:102CE000062B06D1C0081FF0AEFA4300012018439E
:102CF00010BD8068F9E72000FFF7EAFD4369181E60
:102D0000F6D0210001209847F2E7C0469CC002009F
:102D1000070080FF184B70B5040000209C4203D0D0
:102D2000164DAC4201D1012070BD154B00209C42D4
:102D3000FAD0012326001E401C4204D01C41601E14
:102D40008441E0B2F0E72000FFF7C2FD4369002BA9
:102D500009D0210030009847002804D0401B43428E
:102D60005841C0B2E0E72000FFF7B0FF0028DAD0FA
:102D70000138431E9841F4E7F4CB0200FCCB02007B
:102D8000B0C4020010B50400FFF7A0FF002809D16D
:102D900020001FF070FD044902000448FDF7F0FB1D
:102DA00007F0C8FD10BDC046C429030018A00200EA
:102DB00070B504000E001500FFF78AFD036A002BB2
:102DC00005D02A00310020009847002818D12000A3
:102DD0000C4E002D08D11FF04EFD02000A493000B4
:102DE000FDF7CEFB07F0A6FD042D04D11FF043FD37
:102DF00006490200F3E71FF03EFD05490200EEE739
:102E000070BDC04618A00200E5290300102A030087
:102E1000312A030010B51FF045FD002802D10248F9
:102E20000AF052F810BDC0465E2A0300F0B58BB020
:102E3000089310AB80CB041C1B780691062A12D88D
:102E4000012A08D93F230B700B000133069300239E
:102E500006990B7001E0002AF9D1012090428041CF
:102E600040420BB0F0BD002829DA069B06995D1C94
:102E70002D230B7080231B06C418FF21069BC90558
:102E8000E81A131A08000393013B0593220020233C
:102E90002040884220D14E26089AE91C1A4013008F
:102EA0001643640212D149225A402A7046225340E6
:102EB0006E70AB700023EB70069BC81AD1E7069DBD
:102EC000002BDAD0290001350B70D6E7412463408E
:102ED0002E706B70AE70EDE7002F00DA06270899B0
:102EE00019430291672941D1002F00D1EFE1002A57
:102EF0006ED0FE239B059A4200D3C9E0B349201C43
:102F000017F06AFC431E98410026202330300790BA
:102F100004930196AE4B211CF05817F053FC002887
:102F20000AD0049A019B944663440193A94B201C48
:102F3000F15818F0C5F8041C049B04365B10049388
:102F4000182EE7D1FE232D229B0504929C4257D2D6
:102F50009E49201C17F040FC019B002849D0002B03
:102F600001D12B330493FE24A40549E0002AC0D1EB
:102F7000029B662B2CD1059A7B1C934201DB039F9D
:102F8000033F029B7E1C039300230493059301934C
:102F9000FB43DB173B400793039B652B00D0ECE022
:102FA000079B5E1C059F059BDB1B9E4200DDEEE040
:102FB000029B662B00D015E1019B012B00DD4DE14A
:102FC0008549201C17F008FC002800D146E10FE1DC
:102FD000059A7B1D934201DB039F073F029B652BF4
:102FE00000D0BFE0002603933A3B04930596019678
:102FF000CEE70133201C7949019318F061F8041CD5
:10300000029B662B04D0672B34D1019B042B31DC4F
:10301000079B2B70029B672B02D1019B013BFF1882
:10302000059A7B1C934201DB039F033F002F09D1CC
:1030300001233E005B4205936733013504970393F8
:103040000796AFE72E233E0030226B70AB1C019930
:103050001D0001390191002900D188E0002E05D121
:10306000049601235B420593673354E01A70013ED6
:103070000133ECE7039B063BBB427CDC029A672AE8
:1030800078D01300039F073F0026039305967FE740
:1030900000262023019604934E4B211CF05817F074
:1030A00087FB00280AD0049A019B9446634401934D
:1030B000474B201CF15818F003F8041C049B0436FD
:1030C0005B100493182EE7D14449201C17F084FBB1
:1030D000002807D0019B201C01334149019317F0C0
:1030E000EFFF041C029B662B17D1019B059A9342AC
:1030F0001DDAFB180133934206DB1300019A9B1A79
:103100009F1E012B00D10027019BDE190593002390
:1031100001360493663303933AE7029B652B06D08E
:10312000672B10D003932B2300260493AEE7039B59
:10313000063BBB4201DC039F073F2B230026049381
:1031400005963A33E7E7059A3B1D934201DB039F5F
:10315000063F019BBB4201DB029BE3E7019B01337E
:10316000FF1AD1E70026029B049603933EE7019BDA
:10317000049376E71F00029B86E7039B672B00D032
:1031800010E7079E002F00DD0CE7012658E7201C02
:1031900018F08EFA6B1C0993030030332B70002F4C
:1031A00006D1079B002B03D0AB1C09932E236B7019
:1031B00018F09EFA011C201C18F09CF8074917F023
:1031C0007FFF013F099D041CEDE6C046F8FF7F3FED
:1031D00034B802004CB802000000A04000002041BA
:1031E000CDCCCC3D3B49201C17F0F6FA002825D069
:1031F0003020691E0A780B002E2A51D01400303C72
:10320000092C4FD901331A78302A17D159782E2931
:1032100057D10398662854D05A70049A19702D2AF1
:103220004BD1019A013A0192002A01D12B3204922A
:103230002A00511E934246D331221A70029B672BFB
:103240000CD1079B002B09D06A1E551C1378013A3C
:10325000302BFAD02E3B5A425341ED1A049B002BDF
:1032600019D02022089B0A2113401A00452313433A
:103270002B70049B01986B7017F054F90A2117F01A
:1032800037FA3031A97001980A2117F031FA2C1D54
:103290003031E970250000232B70069BE81AE0E529
:1032A0000139A7E7392A02D001320A70ABE7069A42
:1032B00008708A42F4D11300A5E7019A0132019205
:1032C000B6E70135B4E70A784A700A00B1E701278A
:1032D0000DE6C0460000A040002803D0012807D01A
:1032E000002070478B680448002BFAD10348F8E7A8
:1032F0008B685B001843F4E7FCCB0200F4CB0200C0
:10330000034B48600B60002308008B60CB60704764
:1033100074B802007FB504000122080001A9FFF77C
:1033200079FD0022217940200BF00CFD0100050001
:10333000029817F06DF8636806001A0A824218D2E4
:10334000A368C1186943E0681FF027FF6368E06065
:10335000DBB22A00A06863606843E36872430199A6
:10336000181826F022FAA36804489E19A66004B033
:1033700070BD121A1202DBB21343EAE7B0C40200B6
:10338000F7B5FF27466804000191BE431DD1320006
:10339000017940200BF0D6FC636805003B40802794
:1033A000A1683F011F43083141436760E0681FF097
:1033B000F4FE6368E0601A0AA368013A01336A43C5
:1033C0005D433100401926F00CFA2079019BA26878
:1033D000E1680BF063FEA36803480133A3606368F0
:1033E000013BFF3B6360FEBDB0C40200F8B50022A4
:1033F00006000D00010040200BF0A4FC0700102087
:103400001FF0ADFE084B0400012E00D0074B280032
:103410002671236063687843DBB2A56063601FF0A8
:103420009EFEE0602000F8BD0CB90200D0B802009A
:1034300070B506000C0015008AB01B2800D172E0A0
:1034400007D8052826D0122855D0002420000AB01D
:1034500070BD1F28F9D10122280007A91FF022FA08
:1034600000284DD0A30713D1394B22689A420FD1BF
:10347000012204A920001FF02EFA0123079A0093CD
:103480000599089B04981FF050FC324C0028DDD1B0
:10349000314CDBE704A9012220001FF01CFA2800B0
:1034A00007A90122FFF7B6FC069B002203936B4697
:1034B0004020197B0BF046FC06000100089816F02E
:1034C000A7FF069BA16803936B4605004118187B74
:1034D000FFF78CFF059B04001A000499C068039352
:1034E00026F063F92A000598E368724307991818D3
:1034F00026F05BF9AAE711002000FFF70BFFA5E714
:10350000EB070DD403231D4203D1144A29689142CD
:1035100006D02B40022BBBD1114A1540062DB7D047
:10352000104809F0FFFC012204A920001FF0D3F984
:103530000122280007A91FF0B5F90028A8D0089B90
:1035400030000093059A079B04991FF049F99CE706
:103550000CB90200FCCB0200F4CB020000D8020040
:10356000070080FF7F080300F0B505000E0087B05C
:10357000012808D08B0726D10B68264A934202D037
:10358000254A93421FD10122300003A91FF08AF976
:10359000002818D00022290040200BF0D3FB0100A6
:1035A0000700049816F034FF060001002800FFF71A
:1035B0001DFF320004007A430399C06826F0F5F835
:1035C000200007B0F0BD3000FFF780FB071E00D0E1
:1035D000471039002800FFF709FF002104003000E0
:1035E00008F084FE00260090009808F0E1FE031E1B
:1035F000E6D0002F04D119002000FFF7C1FEF3E749
:10360000721C019228003200E1680BF047FD019E18
:10361000EAE7C0469CC002000CB9020070B50E7902
:1036200004000D00012E0DD1194921F0F5F83300E9
:103630002000AA68E96801F0B5FF2000154921F0D3
:10364000EBF870BD3200144921F0ACF9AB68002BE7
:10365000F3D02000114921F0DFF80026AB68B34217
:1036600004D820000E4921F0D7F8E6E7002E03D059
:1036700020000C4921F0D0F83200E96828790BF0DD
:10368000D1FB012201002000FFF73AF90136E5E7FE
:10369000832A0300E32903008F2A03009A2A0300E8
:1036A000227C0300F90A030070B50500140086B0FF
:1036B000002A2ED003230E0080681E4019422DD10F
:1036C000214B0A689A4229D103AAFFF70BF8002878
:1036D00002D11E4809F026FC042C1DD132002979A4
:1036E00040200BF02FFB049B06000093039B2879DE
:1036F0000193019A009B991AFFF778FE0399049AA7
:103700000400521A71437243EE68C068711826F0C3
:103710004CF8200006B070BD3400FAE70A00002320
:1037200001002868FFF792FA02002879042C04D1DE
:10373000E9680BF077FB0400EBE72300E9680BF086
:10374000ADFC034CE5E7C046ACCB0200FE0A03002B
:10375000B0C4020037B50C00110000221D0020008B
:10376000012300920CF048FF002C05D1210001201C
:10377000FFF73CFE040016E02968CB0705D48B0751
:1037800013D10C4B0A689A420FD10800FFF784F955
:10379000010005000120FFF729FE2A000400002196
:1037A000C06826F01EF820003EBD0120FFF7DCFEB9
:1037B000E0E7C04600D80200F7B50600194D0C003E
:1037C00028001DF009FE310017481DF079FD17484B
:1037D0001DF002FE16481DF0FFFDFF239B00E618BA
:1037E00021787F2901D0A64206D128001DF0F4FDE2
:1037F00010481DF0F1FDF7BD6278A37850290CD870
:103800000D48475C0D48405C019300923B0002006C
:103810000B481DF055FD0434E2E70A481DF050FD49
:10382000F9E7C0469E2A0300CB2A0300D32A0300EF
:10383000A92B0300C72B03000E5B0300BD5A030036
:10384000F42A0300172B0300F0B51D008BB007907E
:103850001B4808920E001DF0BFFD290019481DF0FD
:103860002FFD19481DF0B8FD18481DF0B5FD0024C6
:10387000A54204DC12481DF0AFFD0BB0F0BD089866
:10388000A300005D0799F718BA78095D04903868BD
:10389000F35C0003400E0390F8789B069B0E09939F
:1038A000030902933F880007FF04000F7F0E00907A
:1038B000099B0748120901971DF002FD0134D7E763
:1038C0009E2A0300382B0300652B0300972B03006F
:1038D000C92B0300F0B5036899B0070098680791F9
:1038E00021F0CCF8431E0493031D9B00FB180293A8
:1038F0003B0001220F21800014331B180393FB6847
:1039000006A81A4009180A70032293430A930CA8C8
:1039100006F0EAFF031E00D044E3079A7D68BC6806
:10392000002A00D1A1E22A785E2A00D19DE2079800
:10393000079309F01DF804000AE0D84B63600434D3
:10394000D74B9A6C002A00D18EE200229C6C9A64BC
:1039500006F0E8FF0D9425E3D24BEFE7D24BEDE7FD
:103960007F216B785B06DB173278DB01100052B2E7
:10397000084003430136002AF6DB01225B001343B3
:10398000DCE700237F213278DB01100052B20840CF
:10399000C3180136002AF6DB0622DB00EFE703221C
:1039A0000336964308CEC9E70023C7E700237F21EB
:1039B0003278DB01100052B20840C3180136002AE9
:1039C000F6DB9B005B42029A9858002800D035E352
:1039D000B649B7481EF0B9FAADE700237F21327827
:1039E000DB01100052B20840C3180136002AF6DB92
:1039F000029A9B005B4298581EF0B8FEE5E7002053
:103A00007F223378C00119005BB2114008180136DB
:103A1000002BF6DB251D08F0A1FA60603EE00020D7
:103A20007F223378C00119005BB2114008180136BB
:103A3000002BF6DB251D08F05FFAEEE700217F2260
:103A40003378C90118005BB2104041180136002BD1
:103A5000F6DB206821F03CF8206071E700217F222E
:103A60003378C90118005BB2104041180136002BB1
:103A7000F6DB220001CC08F0EDFB61E700207F229D
:103A80003378C00119005BB2114008180136002BD1
:103A9000F6DB21000839251F01F094FC2C004FE7CC
:103AA000251D08F073FAB8E7251F0422216828684D
:103AB000FFF77EF92860F1E700237F213278DB01F0
:103AC000100052B20840C3180136002AF6DB9B00F2
:103AD0005B42029A21689950FBE000237F213278F3
:103AE000DB01100052B20840C3180136002AF6DB91
:103AF000029A9B005B4221689858251F1EF038FEF1
:103B0000CCE700207F223378C00119005BB211405E
:103B100008180136002BF6DB2168251F08F04CFA47
:103B2000BCE700207F223378C00119005BB211404E
:103B300008180136002BF6DB2168251F08F054FA1F
:103B4000ACE700217F223378C90118005BB2104036
:103B500041180136002BF6DB231F1A68206808F095
:103B6000A1FB083CECE62200231F083A21681268FA
:103B70001868FFF71DF90C3CE2E600237F2132783C
:103B8000DB01100052B20840C3180136002AF6DBF0
:103B9000029A9B00D31A1A68002A00D118E7002263
:103BA0001A60CDE600257F223378ED0119005BB263
:103BB00011404D190136002BF6DB029BAD005D1B59
:103BC00028681EF0D3FD002800D101E700212868F5
:103BD0001EF0CEFDB4E600207F223378C00119002C
:103BE0005BB2114008180136002BF6DB08F0F0F943
:103BF000A6E600207F223378C00119005BB2114095
:103C000008180136002BF6DB08F0FAF998E62300D5
:103C100004CB62601C0093E62368A360231F1B682B
:103C2000636008348CE6231F196822682160B7E7B7
:103C3000221F1368216823602300083B1868106066
:103C400019607DE6737832781B021343ED18194B27
:103C5000EE1875E633787678206836021E430196B2
:103C6000FFF758F8EE1C251F2C00002800D167E64E
:103C7000114A019B94466344F61861E633787678DE
:103C8000206836021E430196FFF744F8EE1C251FFC
:103C90002C00002800D053E6EAE7C046F4CB02002F
:103CA000842E0020B0C40200FCCB0200EB2B0300EA
:103CB000389E02000380FFFF0080FFFF3378767894
:103CC000206836021E430196EE1CFFF723F80028F9
:103CD000CED1043C34E633787678206836021E4331
:103CE0000196EE1CFFF716F80028C1D0F1E7266810
:103CF00022003000BB4908F0ADFA230008331A0057
:103D00003000B949019308F0A5FA0021019A080092
:103D100020F0CEFEAB786A781B0213430A9AEE1CA1
:103D20000C320A920A9AF31813600F2206ABD218CB
:103D30001578231D1D4302230A992B434B60002352
:103D40000A9913708B60A060019CF9E52500236837
:103D5000A64A0193083D934209D16360A3602A00FB
:103D60000021032020F0A4FE019B2B6096E6012297
:103D7000019B13400593019B13422AD0231F1A680D
:103D80000592019A5210012A0DD1984A0C3C1A60F2
:103D90000021E26022610320220020F089FE059BC1
:103DA00023600323E1E72A68002106928F4A03205B
:103DB0002A601A602300103B22601A00019320F051
:103DC00077FE019B069A0C3C1A60059B2360052335
:103DD000CBE7019B18006360FEF77AFD834B2A0056
:103DE00005992060A360032020F062FEFEF792FF99
:103DF00000280DD001227D4B06A92B600A9B5B6831
:103E000013400E32521813700A9B0C3B0A9345E67E
:103E10006368AAE7737832781B021343744AEB187D
:103E20009B186360EB78083423600F267F21022003
:103E3000012506AA2368B6180B4206D1221F166870
:103E4000002B00D18DE6183C7AE50A9A013B5268B6
:103E500002426FD0220008C20523636014000A9B4F
:103E60001E680A9B0C3B0A9335007D602B786E1C04
:103E7000180010385A2800D915E316F0BFFA5EFD75
:103E80006DFD6FFD140371FD140382FD90FD95FD22
:103E900097FDAEFDC0FDD0FDDFFDEFFDFFFD11FE86
:103EA00015FE1DFE2EFE42FE52FE62FE74FE7EFEDA
:103EB00093FEACFEBAFE1403140314031403C8FEED
:103EC000CDFE2AFFD4FED9FEE3FEEBFEFFFE1FFF70
:103ED0002CFF14031403140338FF67FF630063000F
:103EE0008000AE00C900E100E100CBFFBD0014037B
:103EF0001403140314031403140314031403ED0034
:103F0000000114031301220114032B0159013E0186
:103F10007D01930147027702A6028F021403A801D4
:103F2000B201BC01CA01D601F3010E022E02DB026E
:103F3000FD020E030A9A52682A4032700A9A0C3A1D
:103F40000A9279E7737832781B0213430A9AEE1CBF
:103F50000C320A920A9AF31813602B7806A9403B98
:103F60005A4253410F22521810785B000A990343BA
:103F700023434B6000230A9913708B60E0E42368AD
:103F80001A4A934200D1A4E6DA0707D55B10DBB2E8
:103F9000043C012B00D048E70222DDE106F0C2FC20
:103FA00023680D930D9B1349186801F01BFA002834
:103FB00000D1BEE27A68002A00D1BAE21378432B1E
:103FC00000D0A8E2937850781B02D11C0343CB1891
:103FD0007B60BB68103BBB6099E40021206808F05F
:103FE00085F939E501020000FF010000B0C40200BC
:103FF0000380FFFF649F02002500210020680C352C
:1040000008F074F9844200D148E50023236004E5F8
:104010002000337876780C383602BC601E43036883
:104020000196EE1C002B02D12300083B186808F013
:1040300097F9002802D1019B103C1DE660607EE4E8
:1040400001220A9B06A95B6813400E3252181370B6
:104050000A9B0C3B0A9373E400207F223378C00153
:1040600019005BB2114008180136002BF6DB012362
:104070001B1A9B00E4182100FDF708FBECE400206C
:104080007F223378C00119005BB211400818013655
:10409000002BF6DB01231B1A9B00E41821001EF005
:1040A0003AFBD9E400207F223378C00119005BB2CB
:1040B000114008180136002BF6DB251D22F02BFBE2
:1040C000ABE42500231F083D1A682168286822F008
:1040D0004BFBE3E400207F223378C00119005BB280
:1040E000114008180136002BF6DB01231B1A9B0038
:1040F000E41821000AF08CF9AEE400237F21327825
:10410000DB01100052B20840C3180136002AF6DB6A
:10411000251F28682168022B03D1CF4A08F034FFFD
:10412000C8E4083C0A000100206808F02DFF93E471
:1041300000237F213278DB01100052B20840C318FF
:104140000136002AF6DB9A089200524219001059F3
:10415000032211408C46251F2168134202D1FDF72E
:10416000EBFF9BE46346012B03D12A6822F0FCFAA3
:10417000F7E420F0DBFE91E400257F213378ED01A8
:104180001A005BB20A4055190136002BF6DB2200FB
:104190002900206808F0A6FAB04B5D19AD0064193B
:1041A000FFF7CEFB00257F213378ED011A005BB2CB
:1041B0000A4055190136002BF6DB22002900206841
:1041C00008F0E0FAFF222B0A13401540E5E703222E
:1041D00003369643002201CE1100251D1DF003FF7A
:1041E0001BE4032203369643251F2268296801CE6B
:1041F0001DF0F9FE5EE40322F31C93431979023AA1
:10420000521A92005E1DA418220018681DF007FFC4
:1042100022E40322F31C934318798021C24349000E
:1042200092005E1DA4180143EEE700207F21337841
:10423000C0011A005BB20A4010180136002BF6DBF1
:10424000FF25FF220100C3096D0011402B405B18C0
:104250009B00E41A000A0240231D206807F050FF6B
:10426000FFF7FAFB00217F223378C90118005BB207
:10427000104041180136002BF6DBFF20784BCAB204
:104280009A1A4000CB090340D31A9B00E41822007D
:10429000002008F0CFF8FFF7DFFB00237F20327803
:1042A000DB01110052B20140CB180136002AF6DBC7
:1042B000FF211800694A0840121A0192FF22DD0905
:1042C00052001540019A1B0A521B9200A4182200AA
:1042D000194020F0EDFBFFF7BFFB00217F22337870
:1042E000C90118005BB2104041180136002BF6DB03
:1042F000FF205C4BCAB29A1A4000CB090340D31A84
:104300009B00E418FE382200FF38C2E70F2206ABFC
:10431000D2181378002B00D13EE601210A9B5B687E
:104320000B4013700A9B0C3B0A9335E60A9B5B68B3
:1043300013420ED003220A9B21685B6893431C0042
:1043400059609A600A9B08341E680A9B0C3B0A93CA
:104350008AE50A9B0C3B0A930A9B03998B42E5D2A0
:1043600006F0E0FA0020BC6019B0F0BD6B78022BBB
:1043700003D1043C2068FFF7DCFA002BFAD10A9B3A
:10438000039A934203D238493848FFF723FB9868D1
:10439000002801D0FFF7CDFA0C3BF1E7231F05936E
:1043A000079B0193231F1868019B002B1AD0002143
:1043B000079B07910193019A0BAB08F061FA030088
:1043C0000B98012B12D12E00206006F0ABFA0F23C0
:1043D00006AA9B181A780A9B012013437E60BC60D2
:1043E000FB60C1E7019A21680BABE6E7002B11D116
:1043F000002800D11848019B043C2060002B16D0F7
:1044000018001B491DF0ABFD002810D006F08AFAF9
:10441000019BC6E517491DF0A2FD002803D00B98AB
:10442000FCF77AF8E7E706F07DFA0B9BB9E5059C07
:10443000FFF786FA00207F223378C00119005BB2B3
:10444000114008180136002BF6DB251F2A68216869
:1044500008F0ACFAFFF72EFBB0C40200FFFFFF3FED
:10446000FEFFFF3FFDFFFF3F312C0300289F0200AE
:10447000589C0200649F020000217F223378C9010A
:1044800018005BB2104041180136002BF6DB250006
:1044900001CD08F09DFAFFF7C0FA2068251F20F033
:1044A00023FBFFF7FBFAAF2B05D80120803B5B0015
:1044B0000343FFF743FABF2B04D8B022D31A9B0063
:1044C000FFF781FACF2B04D8C022D31A9B00FFF745
:1044D00000FBD62B06D8D03B1800216807F09CFDC6
:1044E000FFF7BAFAFA2B08D8251FD73B1800226825
:1044F000296808F02BFBFFF7DDFA444944481DF01A
:1045000024FD040006F00EFA0498043080003818E8
:104510004460022028E75E2B0BD1BC680D98231D58
:10452000BB60FBF7F9FF60607B6801337B60FFF7DE
:10453000EEF90D9B374A93422AD0374A934227D04F
:104540003B68986820F0A0FA20F09EFA7B68051D71
:1045500028005E1B20F092FA0400280020F094FA54
:10456000050020F08BFA0190280020F08DFA341B12
:10457000060020F083FA0500300020F085FA0122C1
:104580000378002B09D12900019B0D98FCF766F8F0
:104590000F2306AA01219B181CE059B2002908DB51
:1045A0001F21013019405B098C42ECD3641AD218E8
:1045B000E6E70F21E0261940F6001B01334046785C
:1045C00002303343F0E70A9A52680A401A700A9A96
:1045D0000C3A0A921A78002AF5D10A9903980D9A92
:1045E00081420DD3012119700A9B02311B687B6047
:1045F0000A9B5B688B430A9904338A601A60EAE479
:104600000498043080003818426082E7172C0300B9
:10461000749E0200D09A0200E09A020010B5FEF7E4
:10462000A1FA044916F04CFD16F000F922F084FFBF
:10463000014810BD00007A44B0C4020010B5FEF776
:104640002BFA002801DD22F077FF014810BDC0469B
:10465000B0C4020010B504000800FEF71DFA641093
:1046600024180348640004400120204310BDC046C4
:10467000FEFFFF7F10B5FEF70FFA002801DD22F0E4
:1046800057FF014810BDC046B0C4020010B522F06B
:104690006BFF034B400018400123184310BDC04678
:1046A000FEFFFF7F10B522F05BFF034B4000184078
:1046B0000123184310BDC046FEFFFF7F004870472E
:1046C0000CBA02000F2310B51940012905D00229A8
:1046D00009D000290AD1030003E0064B002800D1CD
:1046E000054B180010BD1EF0EFFCF4E71EF007FDAF
:1046F000F1E7C046FCCB0200F4CB0200F0B50E009F
:1047000085B003930023B41C07001100300002227F
:104710000093A4000E4B0BF06FFF20001EF01FFD56
:10472000076007000500013E4660039E083C08CE76
:104730000C378360039B1C19A64202D1280005B0E8
:10474000F0BD002101CE07F0D1FD01C7F4E7C0465E
:10475000FFFF000070B50400FEF7BAF800230C4913
:10476000DA0052181568A54205D15168094820F0B1
:1047700053F8012070BD0133612BF1D1064B9C42EF
:1047800003D0984201D00020F4E70449EEE7C04688
:10479000F8BA02005CCA020080EB0200C52C0300DC
:1047A00037B50400A06807F003FE019000280ED082
:1047B0006568074B9D4205D000220121280001AB0E
:1047C00007F09EFCFEF7A6FA0028EBD001983EBD4C
:1047D000B0C40200F0B5037887B004000E00009268
:1047E0009A0702D5009A002A14D1DA07D10F029154
:1047F000002A12D0794A3240062A0ED00322310014
:104800001140164203D1764A3068904204D0009A93
:10481000012A02D0002550E002915B075AD5236897
:10482000A568DF08FF00EF19BD422DD3009B012BC7
:10483000F0D12368D9086368994210D104316160CE
:10484000A068C9001EF0A9FC23686268DB08D21AC0
:10485000DB00A0600021D200C01824F0C2FF0721B5
:104860002368DD086A1C0B40D20013432360A36851
:104870005A49ED005D192E600E40062E1DD0012212
:1048800023789343237018E02868B04218D1009B26
:10489000022B12D1290023687A1B083B6E6828007E
:1048A0002360083A083124F089FF2368DD08A368F3
:1048B000ED005D1900236E602B60280007B0F0BD8D
:1048C000029B002B04D13100FEF794F80028DED1C2
:1048D0000835A9E76368002B05D1009B012B99D10E
:1048E000200000F07FF83D4B33400593062B28D184
:1048F000F0081DF0A3FC04906168049815F00EFE0A
:1049000000270391039B0193019BDD00A3685D19C0
:10491000286800281CD1009B012B00D07AE70721D2
:104920002368DA080132D2000B4013432360002FC2
:1049300000D03D0000236B60059B2E60062B9ED1AE
:10494000BBE73100022007F067FB43100493D3E775
:1049500004281ED1002F00D12F000198616801307A
:1049600015F0DCFD039B01918B42CDD1009B012B07
:1049700000D04FE7002F2CD023683D000833236080
:1049800000237B60059B3E60062B96D02378009A1F
:1049900077E7B04212D1009B022B00D08DE723684D
:1049A0000198083B23606168013015F0B7FDA368EA
:1049B000C900CB58002B0AD12B607EE7029B002B4D
:1049C000CBD13100FEF716F80028C6D0E3E7042368
:1049D000F2E7200000F006F88EE7C046070080FFEF
:1049E000D0A70200F7B54368040001935A1C0023C6
:1049F00017495800455AAA4206D90133222BF8D14B
:104A00005508AD18213B1D43E800A7681EF0B9FB0F
:104A10000622236865601A4001233D0000261343E7
:104A20002360A060019B9E4203D138001EF0C6FBAC
:104A3000F7BD2968002907D0042905D001222000EC
:104A4000FFF7C8FE6B68436001360835EAE7C046E9
:104A500040030300F8B50400002305688668144984
:104A60006A1C5800405A824206D90133222BF8D1E1
:104A700050088218012010430023206063608000EA
:104A80001EF07FFB3700AD00A060AD19AF4203D12F
:104A900030001EF093FBF8BD3968002905D00429C9
:104AA00003D0012220001DF0CEFF0437EEE7C04600
:104AB00040030300004870470148E80110B5FDF7C6
:104AC000EBFF80F31088014810BDC046B0C402005F
:104AD00073B51500174A0B0050CA01281AD94A6845
:104AE00015498A4207D0940711D1144C1668A64282
:104AF0000DD11400160002280CD09A688A4209D001
:104B0000910704D10D4910681400884202D000209A
:104B100008F0DAF901A9186801F034FA019A0100E5
:104B20000023102020F0ECFC32002900230007F0C5
:104B3000BDFF76BD842E0020B0C40200FCDD020063
:104B4000F8B5124A0E00124B124990421AD0C468AE
:104B50008C4203D0012430602000F8BD406B002857
:104B600012D004689C42F0D1050000244768083543
:104B7000BF00EF19BD42EFD2310001CDFFF7E0FFDA
:104B80002418F7E70024E7E70400E5E720C7020060
:104B9000FCA60200894C0000F7B505000C00AB68CC
:104BA000002B0AD0344AE168914206D0E358002B2A
:104BB00003D00422EB681A60F7BDA06B002820D058
:104BC0006B680022D900062304301943FFF702FE68
:104BD000002816D0297C4268EB682868002904D098
:104BE0000100002007F0AAFAE6E7002807D02249D2
:104BF000E5688D4203D021498C4200D00069210034
:104C0000F0E72B68002B16D1646B002CD4D01C4B22
:104C100022681A4F9A420BD126006368194A083657
:104C20009B189B00F3180193019B34689E4216D396
:104C3000BC42B4D1C0E72A7C002AE5D10E4AE16823
:104C40009142E1D00D4A9442DED01869EA68696861
:104C500007F0CEFAEB681B68002BD5D0ACE7BC425E
:104C600001D10436E0E721002800FFF795FFEB684B
:104C70001B68002BF5D09FE7894C000020C702007D
:104C8000FCA60200FFFFFF3FF0B58FB00F0005A9A3
:104C9000019202930500FFF753FF061DB600300096
:104CA0001EF05DFA0400002120C01DF09BFE3200C2
:104CB00020000021103A103024F093FD012F05D17F
:104CC000029B1B680393042B00D188E007AE0822E7
:104CD0000021300024F085FD8422920000230A92F6
:104CE0000C2209A8290003748260C6600993FFF7AB
:104CF00053FF079804282FD105983900C668029BF6
:104D0000019AB04720612000FDF7E2FD854266D19F
:104D1000822200239200290009A8089307930B938D
:104D200009940A92FFF738FF079B002B57D0019890
:104D3000384336D1010007AA1FF0BAFE0500294BFF
:104D40009D424CD028001DF096FD274902002748BF
:104D5000FBF716FC05F0EEFD0028D4D0019A3A438B
:104D600006D1012106AB069507F0CAF90400CAE78F
:104D7000019B5C00E4190134A40020001EF0EFF94F
:104D800002990390221F20C024F00FFD039B019A7B
:104D90003068791C07F0B4F9040003981EF00EFA8D
:104DA000B1E7019B5D00ED190235AD0028001EF052
:104DB000D6F92A000600079B029903600393089B1B
:104DC000083A4360083024F0F0FC320038000199C2
:104DD0001FF06EFE050030001EF0F0F9AFE7200076
:104DE0000FB0F0BDB0C40200CC52030018A0020006
:104DF000F0B51468160089B0002C0ED143688268A3
:104E00005F6B03AD03922C746960AC60EE60002FA1
:104E100005D128001049FFF7BFFE09B0F0BD0F4BC8
:104E20003A689A4210D17B680193019B9C42F0D072
:104E30003B00A200083399582800FFF7ADFE336805
:104E4000002BEAD10134F0E739002800FFF7A4FE77
:104E50003368002BE1D1DCE720C70200FCA602008A
:104E6000F0B5062514001268CB0006000F008BB0C9
:104E700004301D43002A27D12900FFF7ABFC031E95
:104E800002D0436823601DE005A831680374836085
:104E900005964760C460FFF77FFE23680193002BEF
:104EA00010D112498F420DD0300002AA07F0A0F9AC
:104EB000029B002B06D00120019902AA04951FF045
:104EC000F7FD20600BB0F0BD6668002E07D102220E
:104ED0002900FFF77FFC0028F4D00023D2E701224D
:104EE0002900FFF777FC4660F7E7C04603020000A1
:104EF00010B54A6801491FF055FD10BDF45203007A
:104F000070B58AB005000E00140000210822684622
:104F100024F067FC0021102206A824F062FC202364
:104F200007936B46296805950893002C10D1FF2341
:104F30005B0005A80693FFF72FFE022100980428C6
:104F400012D1220031002869FDF732FF0AB070BD8E
:104F5000042C02D181239B00EBE70A4B05A80693A2
:104F6000FFF71AFE0321E9E70028EFD0002202AB89
:104F700002950396049407F0C3F8042CE6D0024887
:104F8000E4E7C04617020000B0C40200F0B5214BB0
:104F900089B08200D4580D0008220021070001A822
:104FA00024F01FFC1423059301AB0693002303AEEA
:104FB00030002968746003953374FFF7EDFD019CA0
:104FC000042C07D13800296907F026F804002000D6
:104FD00009B0F0BD002C0CD0200029001FF060FDAE
:104FE0000400022FF3D1FDF783FD012440000443A8
:104FF000EDE7022FEBD1802330009B00296873601E
:10500000FFF7CAFD019B002BE1D101246D002C4369
:10501000DDE7C04670C00200F0B5160073425E4185
:10502000032376428BB01E402B4B0C0001920021D3
:105030000822070003A8F61824F0D3FB08230793DF
:1050400003AB0893002305AD280021682B74059459
:105050000696FFF7A1FD039B002B0AD1019B002BB5
:1050600007D11D4B28006B60019B2168AB60FFF7E7
:1050700093FD039804281DD12069FDF729FC174BE7
:10508000C2689A4214D1019B002B07D0236858684C
:105090001DF0DEF8010038001FF0BEFB8022019BEE
:1050A00013431A0021693800FDF72AFC0BB0F0BD4C
:1050B000019AF7E7002805D021001FF0F1FC00223B
:1050C0000100F0E720001DF0D6FB23000200044998
:1050D00038001FF067FCE9E7150200003D040000FE
:1050E0000153030070B504000D000B491FF094FB41
:1050F000696800222000FDF703FC200007491FF02B
:105100008BFBA96800222000FDF7FAFB2000044970
:105110001FF082FB70BDC04613530300F90A030061
:10512000FF52030010B5C468002C06D14268044940
:105130000448FBF725FA05F0FDFBA04710BDC0466B
:105140001C53030018A00200F0B50400002589B02C
:1051500001AE08220F003000002124F042FB104B6A
:1051600003A84360E63BFF3B216883600574C6608B
:105170000394FFF711FD0198A84208D0042808D134
:105180002069FDF7A5FB3900436A2069984709B0FB
:10519000F0BD3200290028001FF08AFCF7E7C04666
:1051A00009020000F0B5154B89B015008200D758F0
:1051B0000C000C2200210600684624F012FB182384
:1051C0000497059300276B4603A821680774C36002
:1051D0000394FFF7E1FC0098042806D12A00300070
:1051E000216907F0B3FC09B0F0BD0028FBD06A4686
:1051F0003900012002951FF05BFCF4E7E8BE0200D5
:10520000F0B51600FC228DB004000393002307A81C
:10521000FF324260EC3A05AFFF3A0D002168826030
:10522000C7600374059307947B60FFF7B5FC05988E
:10523000002809D120001DF01EFB0C4902000C487B
:10524000FBF79EF905F076FB039B042806D132009C
:105250002900206906F054FF0DB0F0BD00932A002C
:10526000330079681DF049F8F6E7C046395303006A
:1052700018A00200F0B50D0085B001A907001600C6
:10528000280002AA1CF067FF0023019902989942A6
:105290002CD13C201DF075FF2B4B019A03602B4B4A
:1052A000040083602A4B4760C3602A4B03612A4B8A
:1052B00043612A4B83612A4BC3612A4B03622A4B09
:1052C00043622A4BC362002A06D0029B1968096B0D
:1052D0000163012A18D945632000A66303A9FFF7DB
:1052E0002FFC012813D9224807F0EEFD9A008258BE
:1052F000D468002C06D152681E491F48FBF740F9BC
:1053000005F018FB0133C2E71B684363E4E7A36BB6
:1053100000221A49181DFFF75DFA051E11D04368D7
:1053200003211A000A400B420BD1196899234968DE
:105330009B00994205D1031D012111481DF036FC47
:105340006860200005B0F0BD34C0020019500000B4
:10535000894C0000015200008D4F0000A551000053
:10536000614E0000014F000049510000552C020021
:105370007E5303005553030018A00200861000005E
:10538000BCBF020037B50D001C00002311000093C4
:105390000122280003330BF02FF9012D04D0032D37
:1053A00006D0074807F090FD2068FDF791FA3EBD52
:1053B000206800F0B3F9A2686168FFF75BFFF6E7C9
:1053C000AC5303001FB5064B0A0001934B680293D0
:1053D0008B68010001A8039306F03CFF05B000BDF7
:1053E000F8BF0200F8B50E0003271449144AB04272
:1053F0001DD003003B4038421BD104688C421AD1B7
:10540000406B002814D003689342F0D10500446833
:105410000C4B0835E418A4002C192868A542E4D2E6
:105420003100FFF7DFFF002802D10435F5E7012046
:10543000F8BD0020FCE71800FAE7C04634C00200BF
:10544000FCA60200FFFFFF3FF0B585B0050001910B
:1054500008008B0717D10B68134A93420BD1012325
:10546000029301AB03930024029E039FA6420DD139
:105470000E4805B0F0BD0E4A934204D103AA02A91A
:105480001CF069FEEFE70B4807F01EFDA300F9587A
:10549000094B994206D02800FFF7A4FF002801D14C
:1054A0000134E3E70548E4E734C00200F4CB02002E
:1054B000FCA60200C853030020C70200FCCB020078
:1054C00010B5830703D1054B02689A4202D0044805
:1054D00007F0FAFCFFF7B8FF10BDC04634C0020069
:1054E00001540300032130B50400030001220C40E5
:1054F000084204D109491D6810008D420CD01900E2
:1055000001201140134207D10800002C04D1186873
:10551000034BC01A4342584130BDC04604CC020080
:1055200000D8020010B50400FFF7DCFF03000120E3
:10553000002B0AD1032218002240022A05D1034879
:105540000440063C2000441EA04110BD070080FF1F
:10555000044B88600B60044B08004B600023CB6059
:105560007047C04650DF0200B52F020010B5FDF7AE
:10557000AFF9084B42680848D31859424B41AC2157
:105580005B428B4305495B180549FAF7F9FF05F0C3
:10559000D1F9C04621FDFFFF18A00200DF02000084
:1055A00024540300F7B504000D00019301208B186B
:1055B0000A0000210093009B934212D8272600295D
:1055C00000D0053E224F3200390020001FF0EAF9DA
:1055D000009B9D4214D33200390020001FF0E2F9F5
:1055E000F7BD1378272B08D0223B5E427341DBB214
:1055F0000132002BDFD02726E4E700230100F7E784
:105600002A78B24205D13200124920001FF0CAF9AF
:105610001AE011495C2A14D01F2A09D97F2A15D013
:10562000019B002B02D053B2002B0FDB3900ECE7BB
:105630000A490A2A05D00A490D2A02D0092A05D1A9
:10564000084920001FF0E8F80135C1E70649DCE70A
:10565000350B0300340B0300380B03003B0B030036
:105660003E0B0300410B0300440B0300194B70B5C4
:1056700006000C0098420FD14968A068FCF714FBA3
:10568000051E09D020001FF0E3FA00230620ED00DC
:1056900023600543280070BD10201DF060FD616887
:1056A000050081600660A068FCF7E0FA6368686046
:1056B000591C2368994208D1A368EB600023EA686B
:1056C000A9685354A3602360E4E7A0681DF065FD5A
:1056D000E860F3E7D0A7020070B504000D00002ACF
:1056E00005D0FCF717FBC3000620184370BDFCF77C
:1056F000DBFA0028F7D12A00210002481DF034FB14
:10570000F4E7C046D0A7020010B50A000100024825
:105710001DF02AFB10BDC0469CC00200094B10B50D
:105720000340062B01D1C00810BD830708D1064BEA
:1057300002689A4204D18168C068FCF7EBFAF3E78B
:10574000FFF714FF070080FFD0A70200064B10B53B
:105750000340062B03D1C0081CF07FFD10BD8368F9
:10576000C0680B60FAE7C046070080FFF0B50D0087
:10577000002789B0110006001C00280003233A000E
:1057800000970AF039FF0E20BD420FD0012D0FD136
:10579000102102AA04A808F0A5FC216802A83A007A
:1057A000FDF7AEF8300004A9FFF760FF09B0F0BDC7
:1057B0002068830722D1164B02689A421ED104A9A1
:1057C000FFF7C4FF134B050020680340062B13D1DD
:1057D000C0081CF033FD0400002C04D128000499FB
:1057E000FCF744FA04001020049F1DF0B8FC06608A
:1057F0008760C5604460D9E74468EDE704A90122E9
:10580000FDF708FB002205990498FFF765FFCDE737
:105810009CC00200070080FFF0B58DB0040003912A
:10582000FDF756F804A906002000FFF78FFF039B41
:1058300001902F489A0705D11B6883420AD02D4A50
:10584000934207D0C368002202930121029C03AB5C
:10585000A04703900024039806AA05A9FDF7C0F904
:105860002500059BA3420ED82900002508A81FF09B
:10587000DEF90A9C059BAB4221D8300008A9FFF74E
:10588000F5FE0DB0F0BD069BA700D859FDF720F836
:10589000864202D0184807F017FB002C01D0049B69
:1058A000ED18069BD859154B0340062B05D1C008AF
:1058B0001CF0C9FC2D180134D3E78068FAE7002DED
:1058C00006D02000049A019923F06FFF049BE4188E
:1058D000069AAB00985807A9FFF738FF079A01000E
:1058E000200023F062FF079B0135E418C2E7C046A1
:1058F000B4B70200FCA602004F540300070080FF6B
:10590000F0B58BB0049008680D0006920793FCF781
:10591000DFFF06006868FCF7DBFF864202D068689C
:10592000FFF724FE08A92868FFF710FF040009A963
:105930006868FFF70BFF089A2700A3180393049BDE
:105940000590022B19D9AB681D498B4206D0012165
:10595000300000912100FCF781F80700049B032B25
:105960000BD0EB68164A934207D001222100009227
:105970003000089AFCF772F80390039B3800D91B9B
:10598000069B059A0093099B1DF0CFF9011E07D1D4
:105990000120079B4042002B0BD00A4807F0CEF8AD
:1059A000094B9E4207D1200020F02AFD0121400032
:1059B00008430BB0F0BD011B49000120F8E7C046C9
:1059C000B0C4020094540300D0A70200F0B587B021
:1059D000039008680D00FCF77BFF04A90700286806
:1059E000FFF7B4FE05A904006868FFF7AFFE039B4C
:1059F00006002000022B07D9012321000093380064
:105A0000AB68049AFCF72AF8059A041B0499A418B9
:105A1000064B8C4206D8310023F0B9FE034B002818
:105A200000D1034B180007B0F0BDC046F4CB020014
:105A3000FCCB020073B50D00060069462868FFF72D
:105A400085FE01A904006868FFF780FE0100022EB0
:105A500002D9084807F066FA019A0098064D82427A
:105A600006D8801A201823F092FE002800D1034D9A
:105A7000280076BDA8540300F4CB0200FCCB020042
:105A8000F0B58FB0079010680C001600FCF720FFEF
:105A90000690012C31D07068FCF71AFF069B8342F8
:105AA00002D07068FFF762FD70680DA9FFF74EFE27
:105AB0000D9B0890099330680DA9FFF747FE0D9BD9
:105AC0000B900493079B012B1CD1049B5D1E0123AB
:105AD0005B420A9300242700049B03940593059BD3
