:020000040000FA
:10000000004000203D970100799701007B97010097
:1000100000000000000000000000000000000000E0
:100020000000000000000000000000007D970100BB
:1000300000000000000000007F9701008197010090
:1000400083970100598D0000819E01008397010074
:1000500083970100000000003D9801008397010094
:10006000454F0000F1A30100F59C010083970100BA
:100070008397010083970100839701008397010014
:100080008397010083970100839701008397010004
:1000900083970100F9930100D5930100815000007E
:1000A0009150000083970100000000000000000054
:1000B0000000000000000000000000000000000040
:1000C00010B5064C2378002B07D1054B002B02D02E
:1000D000044800E000BF0123237010BD2001002070
:1000E0000000000074940300044B10B5002B03D0F3
:1000F0000349044800E000BF10BDC04600000000F6
:100100002401002074940300164B002B00D1144BE3
:100110009D46402292029A1A924600218B460F4633
:100120001348144A121A29F004FB0F4B002B00D07D
:1001300098470E4B002B00D0984700200021040068
:100140000D000D48002802D00C4800E000BF21F04F
:100150000DF92000290029F042F821F053F8C0469B
:100160000000080000400020000000000000000027
:1001700018010020E42F0020000000000000000013
:100180000722436804481B791340044AD35C002BC0
:1001900000D003487047C046ECC50200D8000020DC
:1001A000E4C5020010B50124037A05499B005A58A2
:1001B0000448224200D10448A243CA5010BDC046A0
:1001C0003C010020ECC50200E4C5020070B5037AD2
:1001D000064C05009B001859400822F040FA012205
:1001E0002B7A9B0019590A401A5170BD3C0100201E
:1001F00030B5A222A025D200ED05AA580723CA4097
:100200001100164C0340E056421EC90700D5421C9F
:10021000022A0ADC002082421ADB1149CD5C8542A9
:1002200001D0C8540230E25430BD072A09DD0C2A3F
:1002300010DC0B490320CD5C002DF4D10238C854EA
:10024000F1E707490320C95C0029ECD10800EAE77F
:100250000200E8E703200C22E5E7C046E0000020AA
:10026000D80000201D4B70B559791879FFF7C0FFF1
:10027000022805D11A490B689A1C012313430B600D
:10028000184B59791879FFF7B3FF022805D11449A3
:100290004B689A1C012313434B60134C200000F061
:1002A000CBF9124DA84203D161792079FFF7A0FF65
:1002B0000F4C200000F0C0F9A84203D161792079E9
:1002C000FFF796FF0B4C200000F0B6F9A84203D1CF
:1002D00061792079FFF78CFF70BDC0468CE3020086
:1002E0003C0100202CE302001CE302007C9A020087
:1002F00064E3020074E30200072203791340014A19
:10030000D05C7047D800002010B50D4C206827F055
:10031000ADFE002807D00B4B1B78002B03D12068C3
:1003200003685B6898470023074A1370074A1370F5
:10033000FFF798FF13F062FB0BF0DEF910BDC0462B
:1003400064290020472E0020462E0020342E002055
:1003500070B5050094B0002804D13F4821F0A4F8FE
:1003600014B070BD08A801F005FB041E19D12E6859
:10037000290004A8012203F029FB230022003100F8
:1003800004A810F03DFC0400032007F0C3FA20008D
:1003900022F081FF0120404207F0BCFA01F008FB87
:1003A000DEE70120404207F0B5FA09992B4802F038
:1003B000A1FF099802F062FF2949040001F086F8C4
:1003C0000028CDD12749200001F080F80028C7D1AE
:1003D000099C01AA694620000DF0F0FD02AA322115
:1003E00004A801F0C9FF009B022B05D9019B1E49FF
:1003F0005A6802A827F02FFA200002F03FFF1B4B9B
:10040000C2689A4210D1236819495A6802A827F095
:1004100022FAE368002B07D05A68002A04D0002291
:10042000996802A802F042FF032007F073FA04A8BB
:1004300022F0E4F900F0BEFB04A822F0B3F9012099
:10044000404207F067FA0B4B9A6C002A00D187E70D
:1004500000229A6484E7C046BC07030074EB0200E4
:1004600098D4020040D20200E90703003DDD0000FD
:10047000F2070300802E0020F8B54D4C1321200018
:1004800028F018FF2000032128F0AAFF494C01237F
:10049000494A1321200019F04BFA012202212000C1
:1004A00019F076FA454C200016F026FC444F3860CF
:1004B000200016F03DFE434D2860102029F0B3F8CF
:1004C000040029680025404E3A68330017F076F999
:1004D0003E4B1C603E480DF0B7FFE120C0000DF020
:1004E000C3FF3C493C4809F00DFC04F0FDFD00F061
:1004F000DDFA15F081FF16F065FA300028F0FDF9FD
:1005000026F0D8FF05F0AEFE12F01EFC15F08EFBB3
:100510000DF014F9314C3248230088331D6004F08B
:10052000C1FC04F09DFC0DF01BF92E4F3B78012B14
:100530000DD1002307211A002B4805F09BFF031E55
:100540001CD00100294806F01DF9FFF701FF3B7898
:10055000002B29D10CF024FB0028F8D0244821F0EE
:1005600007FD04F08DFC08220021224829F0E1F863
:10057000230098348C331D602560ABE7F82292028B
:1005800011784D2908D15178502905D152881A493E
:10059000164827F07BF8D8E701221849172005F004
:1005A00033FB22F0A2FED2E70CF04AFBD4E7C046B0
:1005B000442900205C290020D51E0200E4290020E7
:1005C00060290020642900206C290020682900206F
:1005D000004000204429002044010020802E0020FB
:1005E00009030000E8000020F60703000D020000E8
:1005F000FE070300002F002004E00300DCCE020011
:1006000010B5084C084A0621200017F0A9F9074A3E
:100610000749200029F000F800221E21054828F093
:1006200076F910BD6C290020249A020000000020F9
:1006300019790100E42900200379044AD35C002BD6
:1006400000D183790248DB00C0187047CA2D002012
:100650003C9A020010B50400FFF7EEFF2279036810
:10066000024903480DF00AFC01F0AAF90C08030046
:100670004CD50200002803D001210379014AD1544E
:100680007047C046CA2D002010B5FFF7D5FF034BB9
:100690004068C01A431E9841C0B210BD5506000004
:1006A00070B506000C00FFF7C7FF0C4D2B00283378
:1006B000984204D12A001032002394420BD0002328
:1006C000A04208D0436830009847641B3379044A3D
:1006D000E410D4540123180070BDC0463C9A0200B7
:1006E000CA2D002010B50400080021F027FC0300EB
:1006F000002C03D0012C06D0002003E00348002B7F
:1007000000DC034810BD40002043FBE7ECC50200BD
:10071000E4C5020043684B6083688B60C3680800CF
:10072000CB60014B0B607047D89A020030B50400D3
:1007300087B00D000020042A25D1200021F0FEFB07
:10074000AB0722D1184B2A689A421ED103AA29006E
:1007500006F042FA102023F00DFF144BE26803600C
:10076000039B616853435B184360049B616801937A
:1007700053435B18059983604A43C260002902DA3B
:10078000E2689B1A836007B030BD002301002A0095
:10079000206802F033FFE36858436368C018012300
:1007A00040001843EFE7C046FCB402009C9A0200E8
:1007B000F0B50E00002785B0110003901D00012246
:1007C00003233000009715F049FB102023F0D2FEE0
:1007D000039B0400036001234760C36028689E42B6
:1007E00005D102F033FEA060200005B0F0BD02F09C
:1007F0002DFE6060686802F029FEA060032EF3D130
:10080000A86802F023FEE0600028EDD1014805F061
:10081000C5FAC0461E08030070B50D004A688B6813
:100820000849040027F017F8EA68012A04D10649AC
:10083000200026F04FFF70BD0449200027F00BF880
:10084000F9E7C04628080300120D0300350803002D
:10085000136810B51400002B05D1C72904D14068D6
:1008600021F0FDFE206010BD9223FF33994201D19B
:100870008068F5E7024B9942F5D1C068F0E7C046C1
:10088000DE020000F0B585B00C0010F06BFC03AA8E
:10089000070002A9200002F07BFE029E039B3500A8
:1008A0001035AD002800019323F064FE04002C22D3
:1008B0001030002128F03DFF67602700104BE663F1
:1008C0002360104B019EA3600F4B403DE3600F4B34
:1008D000403763610E4B7519A3610E4BE3610E4BFC
:1008E00023620E4B63620E4B6363AE4202D1200063
:1008F00005B0F0BD01CE10F035FC01C7F5E7C046EC
:10090000789C0200250900008509000039DA000002
:10091000D1DA000049090000D1DB0000C5D9000090
:10092000E4CE020070B50C0005000B6805495A685A
:1009300026F091FF21682800403122000CF0E4FFEE
:1009400070BDC046141C0300136870B5002B10D195
:100950000568EE6BB34200D170BD9C002C19246C6D
:10096000A14201D00133F5E702339B001B5813600D
:10097000F2E70249024822F0D9FCC0463B080300D6
:1009800024D00200F0B51700C26B85B0CE19050067
:1009900001910393964206D03300254925480DF076
:1009A0006DFA01F00DF8002130000DF073F804002D
:1009B000019B05609B001A0003990830029328F000
:1009C0009CFE0298BA0008302018002128F0B1FEE1
:1009D000029A039B94466344F7191E00019BBB4295
:1009E00002D3200005B0F0BD306810F0BBFB002141
:1009F0000200EB6B0293029B994204D10E490D4811
:100A00000DF03CFACDE78B00E818006C824201D073
:100A10000131F0E7E3189968002901D00749EEE7B2
:100A2000726808369A60019B02330193D6E7C0468C
:100A30004F080300D4D4020088080300A90803006B
:100A400010B50400034B0360403027F0FFF820008E
:100A500010BDC046249B020010B50F4C200028F0AA
:100A6000F7FA002808D0200028F0C4FA0B4B1B68C6
:100A7000984202D106F05CFF10BD3F21084A13885E
:100A800001330B40074909888B42F5D01188064C89
:100A900013806054F0E7C046FC290020D42F0020CA
:100AA000C02D0020C22D0020EA2D0020002210B50C
:100AB000044B05491A80054B05481A8028F0CDFAE9
:100AC00010BDC046C02D0020590A0000C22D0020D4
:100AD000FC290020034B1888034B1B88C01A431EB7
:100AE00098417047C22D0020C02D0020084A094BB4
:100AF00010881988884201D130BFF9E71388064968
:100B0000C85C3F21138801330B4013807047C046F7
:100B1000C22D0020C02D0020EA2D002070B5040059
:100B20004518AC4205D02178024828F067FA013414
:100B3000F7E770BDFC29002070B504004518AC42F1
:100B40000DD02378064E0A2B03D10D21300028F05A
:100B500055FA2178300028F051FA0134EFE770BDE2
:100B6000FC29002070B504000825002C08D02100C5
:100B7000082C00D929000348641AFFF7CFFFF4E7D7
:100B800070BDC046E108030070B5050004000826EA
:100B9000002C08D02100082C00D931000448641A28
:100BA000FFF7BCFFF4E72800FFF7DCFF70BDC0468D
:100BB000D808030010B50100014826F051FC10BD13
:100BC0002C000020142313B5064C00931922182181
:100BD000200017F013FA044A0449200028F01CFDF5
:100BE00013BDC046FC29002000000020410A00007F
:100BF00070B5050000291CDB032905D80800002476
:100C000019F010FD181806060123023999430C004B
:100C1000FE26B52109023143280021F0D3F9002C2A
:100C200004D005492800214321F0CCF9AE61EC61E4
:100C300070BD0024F226ECE780B00000F8B5124A3F
:100C40000E00124B124990421AD0C4688C4203D055
:100C5000012430602000F8BD406B002812D00468E9
:100C60009C42F0D10500002447680835BF00EF1909
:100C7000BD42EFD2310001CDFFF7E0FF2418F7E7C6
:100C80000024E7E70400E5E7C4D50200E4CE020053
:100C9000850D0000F7B505000C00AB68002B0AD0ED
:100CA000344AE168914206D0E358002B03D0042275
:100CB000EB681A60F7BDA06B002820D06B68043089
:100CC000D90006230022194300F07EFC002816D02C
:100CD000297C4268EB682868002904D001000020C4
:100CE00004F052FBE6E7002807D02249E5688D4270
:100CF00003D021498C4200D000692100F0E72B6825
:100D0000002B16D1646B002CD4D01C4B22681A4FD8
:100D10009A420BD126006368194A08369B189B003B
:100D2000F3180193019B34689E4216D3BC42B4D1A0
:100D3000C0E72A7C002AE5D10E4AE1689142E1D061
:100D40000D4A9442DED01869EA68696804F076FBBF
:100D5000EB681B68002BD5D0ACE7BC4201D1043650
:100D6000E0E721002800FFF795FFEB681B68002BE8
:100D7000F5D09FE7850D0000C4D50200E4CE020047
:100D8000FFFFFF3FF0B58FB00E0005A9019202935F
:100D90000700FFF753FF041DA400200023F0EAFB27
:100DA0000500002180C021F078FA22002800103AC6
:100DB0001030002128F0BDFC012E05D1029B1B68DC
:100DC0000393042B00D188E007AC08220021200007
:100DD00028F0AFFC842209A89200002342600C2274
:100DE00039008260C46003740993FFF753FF0798CA
:100DF00004282FD10598029BC468019A3100A047AE
:100E00002861280002F03AFAB84266D18222002313
:100E10009200390009A8089307930B9309950A9249
:100E2000FFF738FF079B002B57D00198304336D18E
:100E300007AA010022F03EFA0400294B9C424CD044
:100E4000200021F016FF2749020027480DF016F870
:100E500000F0B6FD0028D4D0019A324306D106AB8B
:100E60000121069704F072FA0500CAE7019B5D00B4
:100E7000AD190135AD00280023F07CFB2A1F03903B
:100E8000029980C028F039FC711C039B019A2068EC
:100E900004F05CFA0500039823F09BFBB1E7019B8B
:100EA0005C00A4190234A400200023F063FB22009C
:100EB0000700079B029903600393089B083A43606D
:100EC000083028F01AFC3A000199300022F0F2F9BB
:100ED0000400380023F07DFBAFE728000FB0F0BD21
:100EE00038B202003B090300D4D40200F0B5146804
:100EF00089B01700002C0ED1436803AD8268696089
:100F0000596B0392AC60EF602C74002905D1114934
:100F10002800FFF7BFFE09B0F0BD0F4B0A689A42E8
:100F200010D14B6808310E000193019B9C42EED01A
:100F3000A300F1582800FFF7ADFE3B68002BEAD173
:100F40000134F2E72800FFF7A5FE3B68002BE2D151
:100F5000DDE7C046C4D50200E4CE0200F0B50625A8
:100F600014001268CB0006008BB00F0004301D4344
:100F7000002A28D1290000F027FB002802D043686E
:100F800023601EE005AB18740790316818000596C1
:100F900006970894FFF77EFE23680193002B10D17B
:100FA00011498F420DD002AA300004F047FA029B8B
:100FB000002B06D002AA01990120049522F07AF9AB
:100FC00020600BB0F0BD6668002E07D10222290018
:100FD00000F0FAFA0028F4D00023D1E7012229001A
:100FE00000F0F2FA4660F7E70302000010B54A6825
:100FF000014926F030FC10BD380A0300F0B58BB073
:1010000005000E00140000210822684628F091FB1C
:101010000021102206A828F08CFB202307936B46A2
:10102000059508932968002C10D1FF235B0005A8C3
:101030000693FFF72FFE0221009F042F12D12200FA
:101040003100286902F08AFB0BB0F0BD042C02D1FC
:1010500081239B00EBE70A4B05A80693FFF71AFED6
:101060000321E9E7381EEFD002AB00220295039678
:10107000049404F06BF9042CE6D00248E4E7C0467F
:101080001702000038B20200F0B5204B8BB082008E
:10109000D35803AF0C00082200210600380001934A
:1010A00028F047FB019B05AD6B601423AB60002368
:1010B000280021680594EF602B74FFF7EBFD03987F
:1010C000042805D12169300004F0CEF80BB0F0BD42
:1010D00000280AD0210022F0E5F8022EF6D102F015
:1010E000E1F9440001202043F0E7022E01D0002066
:1010F000ECE7802321689B0028006B60FFF7CAFDA6
:101100003B68002BF3D16400ECE7C046B49C0200BE
:10111000F0B556425641032376428BB01E40294B10
:101120000C0001900021170003A80822F61828F0EF
:1011300000FB0823079303AB0893002305AD216848
:1011400028002B7405940696FFF7A4FD039B002B43
:1011500008D1002F06D11B4B216828006B60AF60BF
:10116000FFF798FD039804281AD1206902F086F849
:10117000154BC2689A4211D1002F07D023685868D6
:1011800022F0AEFA0100019826F0A4FA80223A4338
:101190002169019802F08AF80BB0F0BD3A00F7E738
:1011A000002805D0210022F07DF800220100F0E7A0
:1011B000200021F05EFD230002000449019826F082
:1011C0004AFBE9E7150200003DDD0000EA080300E4
:1011D00070B504000D000B4926F07CFA6968002206
:1011E000200002F063F80849200026F073FAA9688D
:1011F0000022200002F05AF80449200026F06AFA82
:1012000070BDC046F3090300FC090300430A030054
:1012100010B5C468002C06D14268044904480CF09B
:101220002DFE00F0CDFBA04710BDC046FF09030016
:10123000D4D40200F0B50400002589B001AE082224
:101240000F003000002128F074FA104B03A843600F
:10125000E63BFF3B21688360C66005740394FFF79B
:1012600019FD019B1800AB4208D0042B08D120695E
:1012700002F004F83900436A2069984709B0F0BDCC
:1012800032002900280022F015F8F7E709020000D3
:10129000F0B5154B89B016008200D5580C000C2211
:1012A00000210700684628F044FA182303A8456087
:1012B000836000256B462168C36003940574FFF7C3
:1012C000E9FC009B042B06D132002169380004F0B0
:1012D0006DFD09B0F0BD181EFBD06A462900012043
:1012E000029621F0E7FFF4E72C9B0200F0B517000F
:1012F000FC228DB004000393002307A8FF32426054
:10130000EC3A05ADFF3A0E0021688260C5600374B7
:1013100005936B600794FFF7BDFC0598002809D181
:10132000200021F0A6FC0C4902000C480CF0A6FDA0
:1013300000F046FB039B042806D13A0031002069E7
:1013400004F004F80DB0F0BD009332003B00696872
:1013500021F09FFEF6E7C0461F090300D4D4020027
:10136000F0B50D0085B001A907001600280002AAFB
:1013700024F09EF800230199029899422CD13C2038
:1013800023F00AF92A4B019A03602A4B0400836078
:10139000294B4760C360294B0361294B4361294BAB
:1013A0008361294BC361294B0362294B4362294B5B
:1013B000C362002A06D0029B1968096B0163012AE7
:1013C00018D94563A66303A92000FFF737FC01285D
:1013D00013D9214804F0A6FE9A008258D468002C44
:1013E00006D152681D491E480CF048FD00F0E8FA8D
:1013F0000133C2E71B684363E4E7A36B0022181DB7
:10140000184900F0E1F8051E0FD0032243681A4086
:101410000BD11968992349689B00994205D1031D96
:101420000121114820F091FE6860200005B0F0BD58
:10143000789C020011110000850D0000ED120000E3
:1014400089100000911200005D0F0000FD0F0000E8
:1014500035120000F3210200C50903009C090300B6
:10146000D4D4020086100000009C020037B50D00A5
:101470001C0000231100009301220333280014F004
:10148000EDFC012D04D0032D06D0074804F04AFEE0
:10149000206801F0F3FE3EBD20680FF063FEA268F5
:1014A0006168FFF75DFFF6E71C0A03001FB5064BF6
:1014B0000A0001934B6802938B68010001A8039313
:1014C00003F0EEFF05B000BD3C9C0200F8B50E0035
:1014D00003271349134AB0421CD003003B401BD1E1
:1014E00004688C421AD1406B002814D003689342E0
:1014F000F1D1050044680C4B0835E418A4002C1900
:101500002868A542E5D23100FFF7E0FF002802D1AC
:101510000435F5E70120F8BD0020FCE71800FAE7E4
:10152000789C0200E4CE0200FFFFFF3FF0B585B0DB
:101530000500019108008B0717D10B68134A9342ED
:101540000BD10123029301AB03930024029E039F5E
:10155000A6420DD10E4805B0F0BD0E4A934204D10B
:1015600003AA02A923F0A4FFEFE70B4804F0DAFD79
:10157000A300F958094B994206D02800FFF7A6FFAF
:10158000002801D10134E3E70548E4E7789C020034
:10159000E4C50200E4CE020063090300C4D50200E2
:1015A000ECC5020010B5830703D1054B02689A42CF
:1015B00002D0044804F0B6FDFFF7B8FF10BDC046E6
:1015C000789C0200FC080300F0B587B00092027816
:1015D00004000F00930703D5009B002B00D0F5E01B
:1015E000D307DB0F0ED07A4B3B40062B43D00323AF
:1015F0003B4003D177493868884203D0009B012BD8
:1016000000D0E3E0019353075FD52368A568DE08A7
:10161000F600AE19B54230D3009B012B00D0D5E0C7
:101620002368D9086368994210D104316160A068C9
:10163000C90022F0BDFF23686268DB08D21ADB0014
:10164000A060D200C018002128F073F80721236899
:10165000DD086A1CD2000B4013432360A368ED0031
:101660005D195B4B2F601F40062F21D0012223788C
:10167000934323701CE00123C4E72868B8421AD1C1
:10168000009B022B14D129002368721BD210083B47
:10169000013A6F6828002360D200083128F036F83C
:1016A0002368DD08A368ED005D1900236F602B60DF
:1016B000280007B0F0BD019B002B04D1390001F0D8
:1016C00073FE0028DCD10835A4E76368002B05D140
:1016D000009B012B7AD1200000F07EF83C4B3B4070
:1016E0000593062B27D1F80821F0F0FF03906168DD
:1016F000039819F031F800260491049B0293029B91
:10170000DD00A3685D19286800281BD1009B012B10
:101710005CD107212368DA080132D2000B40134361
:101720002360002E00D0350000236B60059B2F60E6
:10173000062B9BD1BCE73900022003F095FD431036
:101740000393D4E7042803D1002E1DD12E001BE003
:10175000B84211D1009B022BAAD123680298083B02
:1017600023600130616818F0F7FFA368C900CB5807
:10177000002B25D12B609BE7019B002B04D1390066
:1017800001F012FE0028E5D102986168013018F0DE
:10179000E3FF049B02918B42B1D1009B012B15D139
:1017A000002E0FD0236835000833236000237360B8
:1017B000059B3760062B00D17AE72378009A57E71C
:1017C0000423D7E7200000F007F890E700256FE733
:1017D000070080FFC4F40200F7B5436804000193DA
:1017E0005A1C002317495800455AAA4206D901330A
:1017F000222BF8D15508AD18213B1D43E800A768FE
:1018000022F0CAFE072322686560134001220025EA
:10181000236013432370A060019B9D4203D13800D5
:1018200022F0D7FEF7BDEE00B959002908D00429EF
:1018300006D001222000FFF7C7FEBE19736843607F
:101840000135E9E748020300F8B505000023046804
:1018500086681449621C5800405A824206D90133F6
:10186000222BF8D150088218012010430023286051
:101870006B60800022F090FE3700A400A860A419DD
:10188000A74203D1300022F0A4FEF8BD3968002938
:1018900005D0042903D00122280020F038FD0437A8
:1018A000EEE7C04648020300F0B5802787B02B4D15
:1018B00002907F422C78002C1CD063B2002B12DAED
:1018C0006E787C40E4B2002E14D0013CE4B2FF2CD0
:1018D00002D101350135EDE704AB981D01210670F9
:1018E000FFF72AF9F1E704ABD81D01210470FFF7D7
:1018F00023F9EFE70527029820F047FB0124BC42BB
:1019000027DA0025164E22002900300012F056FA80
:101910006B4601901B79002B15D0631E1A0029001D
:101920003000039312F04AFA031E0CD12200290062
:10193000300012F00FFAFF22019B29001340300003
:10194000621E12F007FA0135052DDBD10134E4B235
:10195000D5E7013F002FCED107B0F0BD450A030007
:101960002C00002010B5C820FFF79EFF004810BDD6
:1019700038B20200C4600561466187614146C161B9
:101980004946016251464162594681626946C162D7
:101990007146816000490847A11900000020C04637
:1019A000024B9A680260986000207047802E0020E9
:1019B000024B9A6812689A607047C046802E0020D9
:1019C0000E4A9368002B01D120F097FA19685860ED
:1019D0009160181CC468056946698769C1698846B1
:1019E000016A8946416A8A46816A8B46C16A8D4688
:1019F00081688E4601207047FEE7C046802E002099
:101A0000F0B5304B8FB007AE013800930431072397
:101A1000019614F053FA0023B0682B4F0393B84299
:101A200003D001F013FDC3B2039370691825B842C7
:101A300002D025F0D3FB45B2B0691924B84202D0D8
:101A400025F0CCFB44B23069B8420DD005AA022182
:101A500001F0C0FD059B186825F0C0FB059B45B251
:101A6000586825F0BBFB44B201210E00A022AE4015
:101A7000A140164BD205D75815483E430590D65085
:101A8000D6588E43D650134A03218550C45028009F
:101A900027F02CFD2000032127F028FD079905A839
:101AA00018F0D4F90A9B039A089905A818F0DEF9F2
:101AB0000799094818F054FE084B01301880024875
:101AC0000FB0F0BD009E020038B202001405000005
:101AD000002000400C050000C8320000C42D00208A
:101AE00010B5FEF7F7FF034B002800D1024B18009A
:101AF00010BDC046ECC50200E4C50200F7B50D00FC
:101B000014001E00002A07D0FEF7E4FF002805D1CC
:101B10000B230124336064422000FEBD2E002F19E8
:101B2000FEF7E4FF741C3070BC4213D00A4B1B88D4
:101B3000009320F042FA0190FEF7CCFF2600002827
:101B4000EED120F03AFA019BC01A009B8342F3D8F1
:101B5000641BE1E73C00FBE7C42D002010B501F059
:101B6000D9FC044919F0CCFB18F07EFF20F00DFAE7
:101B7000014810BD00007A4438B2020010B501F0EF
:101B800065FC002801DD20F000FA014810BDC046C8
:101B900038B2020010B50400080001F057FC6410D0
:101BA0002018034C400020400124204310BDC046B3
:101BB000FEFFFF7F10B501F049FC002801DD20F099
:101BC000E0F9014810BDC04638B2020010B520F05F
:101BD000F4F9034B400018400123184310BDC046E0
:101BE000FEFFFF7F10B520F0E4F9034B40001840E2
:101BF0000123184310BDC046FEFFFF7FF0B54868C3
:101C000087B00F0001F022FC041E02DA002004F06D
:101C1000C5F8BB68164A01939D186B1E9D410100D3
:101C200002A820F0AEFD049E22000021300027F023
:101C300080FD3868EDB2C3070AD4330022002900C2
:101C400020F0DAFC02A90B480FF034FA07B0F0BD1F
:101C500043102000042C00D904200749019F0022D2
:101C60008F4200D0221AB218290025F057FAE9E76E
:101C700062EBFFFF48DF02009E140000F0B50C008D
:101C800087B0012203A9606801F09AFDA368134997
:101C9000039A8B420DD10126049976424C1E019184
:101CA0001419049900200D00002D05D120F0F2FC3C
:101CB0000DE014000126F4E7094F013DB84208D9B0
:101CC00008481B18581E8341D8B220F086FC07B084
:101CD000F0BD277800023843A419E5E79E14000000
:101CE000FFFF3F0062EBFFFF70B546007508041C64
:101CF000291C281C19F0FAFD00280BD11649281CB4
:101D000018F07EFE002808D01449154823F0ECFB9B
:101D1000FFF756FE134804F041F8002C11DA002EAC
:101D200012D0FF23DB05E3189C22D20593420BD986
:101D300000F088F9211C0500043022F0D7FD2800AE
:101D400070BDE30DDB05EFE7201C19F0E5FD012573
:101D500040000543F3E7C046FFFF7F7FF30A03001F
:101D6000A8D302000C0B0300F0B50C00002585B0D1
:101D7000110020001E00009502232A0014F06EF8C6
:101D80000120AC422BD0844231D13068204226D190
:101D900003230340AB4203D11C4A016891421ED089
:101DA0001B4A0240062A06D0002B0DD10268194BAF
:101DB00092699A4208D103A90FF00AFE00231A0083
:101DC000039905F027FB0AE0032302001A40022AC8
:101DD00007D1FF22D20580189843FFF785FF05B091
:101DE000F0BD01F033FB012340001843F7E703A9DE
:101DF00030680FF0EDFD04007068039F01F026FBD2
:101E00002B00020039002000DBE7C046C49E020020
:101E1000070080FF6D1F0100F8B51F000B4B150078
:101E200059180139097818F011FC00260400B7424E
:101E300004D00130032118F009FC0600281E01D04F
:101E400027F0CBFC0334A4192018F8BDE30A0300E3
:101E5000F0B58DB00A9214AA147815AA127806006B
:101E60000F000792DA0742D55D100023002D01DA3A
:101E70002D236D420693139A079B12992020FFF79A
:101E8000CBFF3B680590834204D222F073FB059B95
:101E900030603B6000213768059BFB185A1E1170AB
:101EA0008D4240D00A3C099208920B941299280066
:101EB00018F052FC0B003033092901D90B9B5B1839
:101EC000089A541E2370079B002B48D000282DD061
:101ED000A7422BD2099B1B1B032B05D1079B013C5F
:101EE0002370A74222D2099405000894DEE79A07DE
:101EF00012D1244A196891420ED1079A0294039292
:101F0000139A39000192129A00920A9A20F03BFB30
:101F1000040020000DB0F0BD0023326813700A9A4F
:101F200034681360F5E79C1E30232370139B002B4D
:101F300005D0180027F051FC201A87421FD3069BBA
:101F4000002B04D0BC4202D9069B013C23703368AD
:101F5000059A9B181B1B0A9A013B1360D9E7A742FD
:101F6000E4D20028C0D1E1E7C2540133139AD25C15
:101F7000002AF9D1069B0400002BE5D1E7E70023F6
:101F8000F4E7C046C49E02001300144A10B50400D2
:101F9000934204D10122200003F008FF10BD104A33
:101FA000934201D10322F6E70020072CF6D10D4A17
:101FB0001A40062A0ED09A07F0D11A680A4CA2429B
:101FC00008D00A4CA24205D0094CA24202D0094CCA
:101FD000A242E3D10A0007201900DDE7E4C50200B0
:101FE000ECC50200070080FFC4F4020048DF0200D5
:101FF000E4CE0200DC9F0200F7B505002C200E00A5
:102000001700019322F0C8FA0400057086608781EA
:10201000072D01D0012D0FD1337872780A3B1B02B6
:102020001343E381019B202063750423638422F022
:10203000A1FAA0622000FEBD014B5B5DF1E7C04646
:10204000250B030010B5102022F094FA0400034B76
:1020500008C022F0D2FB200010BDC046C49E020082
:1020600070B50C00052804D818F0DCFA06030C043F
:10207000131C0024200070BD8B680E4C002BF9D17E
:102080000D4CF7E7081D23F01FF80124400004431E
:10209000F0E7FFF7D7FF211D0500043022F03AFDDD
:1020A0002C00E7E7FFF7CEFF211D0500043022F0EA
:1020B00041FDF5E7ECC50200E4C5020070B505007E
:1020C00083070CD1104B02689A4208D1FFF7BAFF80
:1020D000291D0400043022F012FD200070BD2800EC
:1020E00001F0B4F9C0231B06984206D180200021DC
:1020F000C00520F0A5FA0400EFE70124C317C018BB
:10210000584040000443E8E7C49E020007B5C307F7
:1021100001D540100EBD043001A90AF06BF800286B
:1021200001D00198F6E70249024821F0FFF8C046C5
:10213000520B0300A8D30200F0B58BB00190012030
:102140000D00170008402BD04B10022203A904A851
:1021500022F08BFB04AEFB072BD57B10022203A9D8
:1021600004A822F082FB04AD019B092B01D0162BA1
:102170003FD16B68002B68D0300023F000F8041CBE
:10218000280022F0FCFF011C201C18F0E1FE0323B4
:1021900002249843704B0443E41820000BB0F0BDB8
:1021A00003240C4023D16D4B0A689A42F5D10E1DD1
:1021B000D1E703231F4205D1684A3968914201D112
:1021C0003D1DD1E73B40022B0CD1654B3B40062B1C
:1021D00008D0300022F0D3FF3A00011C019804F02F
:1021E00023FC04E03A0029000198FFF7CDFE04002B
:1021F000D3E7019B182B00D98AE0FFF723FF0400E7
:10220000019818F00FFA444A3E50500D13191F72EE
:10221000336572444A3E50500D13191F72336500E6
:10222000201D2A00310022F01DFDB6E7201D2A00E6
:10223000310022F051FDB0E7201D2A00310022F0CC
:102240007EFEAAE76B68002B03D14649464821F081
:102250006DF807A822F0D1FA2B003200201D07A943
:1022600009F062FE07A822F0CDFA96E76B68002B12
:10227000EBD007A822F0C1FA211D2B00320007A8DD
:10228000EEE7201D2A00310022F067FD85E7201DC2
:102290002A00310022F0DDFD7FE7201D2A003100F9
:1022A00009F0CCFD79E73800FFF730FF021E02DAB3
:1022B0002E4803F073FD019B201D3100032B01D03C
:1022C000102B02D109F052FD67E722F06AFC64E7A7
:1022D0006B68002B03D02B78DB0700D579E7201D36
:1022E0002A00310022F0AEFE57E76B68002BACD01D
:1022F000FFF7A8FE0700211D04302B00320009F073
:1023000013FE07A90220079708940BF0C3FB6EE7A2
:102310002900300022F0D0FB030001980024193876
:10232000042800D939E7124C18F07CF90308120B85
:102330000F00002B00DB30E70E4C2EE7002BFBDC00
:102340002BE7002B00DD28E7F6E7002BF4DA24E783
:10235000002B00D021E7EFE700008080C49E020040
:10236000070080FF2C0B030088D502003D0B030003
:10237000E4C50200ECC5020070B50500140020F0B1
:10238000EFF9024B2560636070BDC046292702004B
:1023900010B50C007F2906D8012120F021FA002871
:1023A00000D0047010BD224B994210D8022120F0B9
:1023B00017FA0028F6D04023A2095B4213430370AA
:1023C0003F232340802464421C434470EAE7194BB6
:1023D000994214D8032120F003FA0028E2D02023E8
:1023E000220B5B4213433F2180220370A309524218
:1023F0000B400C401343224343708270D2E7042108
:1024000020F0EEF90028CDD01023A20C5B4213433C
:102410003F2103708023220B5B420A401A43427023
:10242000A2090A400C401A431C438270C470B9E7E9
:10243000FF070000FFFF000007B5034B0090684650
:10244000019312F061F907BD29270200002803D08B
:10245000012807D0002004E08B680448002B00D13D
:10246000034870478B685B001843FAE7ECC502002D
:10247000E4C50200044B88600B60044B08004B600D
:102480000023CB607047C046ACC302009329020012
:1024900000238168F0B5CA0F094C521852100E196A
:1024A0009A4201DC0748F0BDC568F11A9C0089001A
:1024B0002C196D5827682560C46801336750EFE711
:1024C000FFFFFF3F38B2020070B583680D0041681E
:1024D00004008B4212D3C900C06822F069F8636817
:1024E0000A495A00A3686260D21A013352189B004D
:1024F000E0609200C018002127F01BF9A368E26891
:10250000591C9B00A16002489D5070BDFFFFFF3F1A
:1025100038B20200F8B5070016004C10836812D5D7
:10252000E41810D500240D4D38002900FFF7CCFF2A
:10253000BB68591E9B00FA68181F8C4207DBA40079
:102540002800A650F8BD9C42EDD91C00EBE7D3183B
:10255000083B1B68013913500300ECE738B2020056
:1025600070B50025040085601021C06822F020F8B5
:1025700004232900E0606360102227F0DAF80148A4
:1025800070BDC04638B2020030B50C0085B0104BAB
:1025900002AD0431009301380223019513F08EFC43
:1025A00023680C4C996801290FD9D8680A4B029A04
:1025B000C91889004118A24200D100222D79074B89
:1025C000002D00D1064B20F0F2F9200005B030BDFF
:1025D000009F020038B20200FFFFFF3FE4C5020087
:1025E000ECC5020070B50C680B00A1680200002960
:1025F00003D11949194820F099FE2068012A27D0F3
:102600005A68002300F0FAFFE168A26886008B197F
:10261000013A1D680436A260121A92008919180046
:1026200027F074F80021A368E0689A0011506168EF
:1026300004290BD95B00994208D949088900E06850
:1026400021F0B6FF6368E0605B086360280070BD3E
:1026500001225242D5E7C0467F0B0300C8D10200D9
:1026600007B5009001910220694620F008FA6946FA
:1026700001900220FFF7B6FF00480EBD38B20200FD
:1026800070B50E000D490500002425F023F8B3684D
:10269000A34204D828000A4925F01CF870BD002C7C
:1026A00003D00849280025F015F8F168A30001229D
:1026B0005958280000F0FAFD0134E8E7DF0B030069
:1026C0009B510300FC09030070B5032604000D00B4
:1026D0000E4029D1174B0A689A4225D183688A682F
:1026E00099184368994210D904318900C06821F0D3
:1026F0005FFFAA68A368E0609B181A1D9B006260D8
:10270000C0181022310027F014F8A368E968980077
:10271000E3681818AB689A0026F0EFFFAB68A26870
:10272000D318A360044870BD2900200020F0B0F940
:10273000F8E7C046DC9F020038B202000B4B70B5D0
:10274000050003600C000800042900D20420686022
:10275000AC60800021F00EFF6A68E860121BA400E4
:1027600092000019002126F0E4FF70BDDC9F0200FA
:102770007FB50D00160012283ED005D8052819D0C7
:1027800007283FD0002434E00300193B042BF9D87C
:1027900093070DD1284B12689A4209D1B368009370
:1027A0008A68F368C96804F093FA244C002820D1A1
:1027B000234C1EE0032300241340A34219D11C0024
:1027C0001D4A3368934214D18B68B268981820F080
:1027D00078F90400AB68E9689A00C06826F08DFFBC
:1027E000A868E36880001818B368F1689A0026F0BA
:1027F00084FF200004B070BD11002800FFF764FFC3
:102800002C00F6E703A9100000F05EFE0024A042B1
:10281000EFD0039BA34200DA0394AB6803985843BC
:1028200020F04FF9C36804000093AA68039B0421B9
:10283000E86820F067FEDCE7DC9F0200ECC50200E0
:10284000E4C50200F0B5032704008BB00E001000B1
:102850000F40002A33D1002F2AD1654B0A689A42D3
:1028600026D104AAA06804F0B7F9002802D1614873
:1028700003F086FC0599049BA268E0685D1A521A71
:102880009B00890041189200C01826F03FFFA36802
:10289000AA00E818E368800018185242390026F0B0
:1028A00048FFA3685D19A560534D28000BB0F0BD2B
:1028B00007A9022007940896FFF794FEF4E7042A7C
:1028C0002CD1A068002F1FD1494B0A689A421BD116
:1028D00007AA04F081F9002806D107AAE168A068D8
:1028E00020F023FE0500E0E7079B0898C01A20F0BF
:1028F000E8F88368E1689A00079B05009B00C91807
:10290000C06826F0FAFED0E70023010032002068FC
:1029100000F074FEE3688000C558C6E7364D002F0E
:1029200060D1334B0A689A425CD103AA02A900F035
:102930002FFE07AA3100A06804F04EF9002896D0B7
:10294000079B029A08999E180191761AE068002E5A
:1029500027DDA368F1186368994206D9890021F040
:1029600027FEA368E0609B196360029A079BA16839
:102970009B18F21A52180899E0689B0089004118C8
:102980009200C01826F0C2FE029B03999A00079B92
:102990009800E368181826F0B9FEA3689E19A6608F
:1029A00083E79B000399C018920026F0A6FE0899C1
:1029B000A268E368521A8900019359180798029B8C
:1029C0009200C018019B8000181826F09FFEA36893
:1029D000B200F018E368800052421818390026F05F
:1029E000A8FEDAE702003100200020F0ABF85CE737
:1029F000FCB402005B53030038B2020070B506005D
:102A00000D00002814DD002907DD154817F0A8FE89
:102A10000124B04209DB002407E00100C0200006C9
:102A200017F09EFE0124A842F5DDE4B2200070BD3F
:102A3000002907DDC020000617F092FE0124B042F5
:102A4000F3DCE8E70024A042F0D00100044817F0CE
:102A500087FE0123A84200DC231CDCB2E6E7C04667
:102A6000FFFFFF3FF0B58BB00600080011001A0011
:102A700010AB1F78314B05AD01950093052313F082
:102A80001DFA9120000121F075FD2D4B04A918605D
:102A9000059B476043706B682A4F0370AB68040066
:102AA0008370EB68C3702B7C30003B600EF090FFAE
:102AB0000025254B03900C201D6021F05BFD234B6E
:102AC0000600036012F058FBB06012F055FB204B7B
:102AD000204A1860204B11001D70204B70601D7043
:102AE0001F4B30001D602B0012F01AFA2000049AD0
:102AF000039922F05DFC20000AF046FD0400A84284
:102B000007D112F013F90E4B1C60164B186803F036
:102B100045F90122144B1A7012F028FB0028FBD152
:102B2000124B943318603B68002B04D00C4B1048B8
:102B300019681EF03FFC07480BB0F0BD50A0020022
:102B4000142F00203C2B0020602A00209CA00200B3
:102B50005C2A002038B202002C2E00202A2E0020F1
:102B6000642A0020240000202B2E0020802E00202C
:102B7000930B030000220D4910B50B78DBB2934292
:102B800010D10B4A1478002C02D001240C70137061
:102B9000084B1B78002B07D0074A136820331360BB
:102BA000064B1A68100010BD8268FBE72A2E002031
:102BB0002B2E00202C2E0020602A00205C2A0020D2
:102BC00073B501A90EF004FF019B06001748502BB6
:102BD00017D88020400021F0CDFC154C05002300C3
:102BE000943318600023019A9A420CD15B23280089
:102BF000AB5404F033F92B00002808D19434206042
:102C00000C4803F0CBF8F15CE9540133ECE75A1BB4
:102C10000133591E09789B29F9D12900064824F06F
:102C20000EF900239434236076BDC046A20B030046
:102C3000802E0020B00B0300C4F40200D2235B00FE
:102C40005843134AF0B51368000C834206D9114C5F
:102C50002368013323601368203B13601F230500A2
:102C600001270D4E9D431468A5420BD803401A1D41
:102C7000202A00D92022094C2468934204D3084B0F
:102C80001860F0BD3770EEE7E51829710133F4E7FD
:102C9000602A0020642A00202C2E00205C2A0020BC
:102CA000682A0020002803D0012807D0002004E073
:102CB0008B680448002B00D1034870478B685B0089
:102CC0001843FAE7ECC50200E4C50200034B486074
:102CD0000B60002308008B60CB607047F8A00200F7
:102CE0007FB504000122080001A900F069FD00225F
:102CF000217940200FF00AFD01000500029817F02D
:102D0000A5FC636806001A0A824218D2A368C1189B
:102D10006943E06821F04CFC6368E060DBB22A00A4
:102D2000A06863606843E36872431818019926F04D
:102D3000E4FCA36804489E19A66004B070BD121A92
:102D40001202DBB21343EAE738B20200F7B5FF27FD
:102D5000456804000191BD431DD101792A0040203E
:102D60000FF0D4FC636806003B408027A1683F0158
:102D70001F43083141436760E06821F019FC636834
:102D8000E0601A0AA368013A013372435E432900E6
:102D9000801926F0CEFC2079019BA268E1680FF033
:102DA00055FEA36803480133A3606368013BFF3B02
:102DB0006360FEBD38B20200F8B5002207000D00C6
:102DC000010040200FF0A2FC0600102021F0D2FBF1
:102DD000084B0400012F00D0074B28002771236007
:102DE0006368A560DBB27043636021F0C3FBE06001
:102DF0002000F8BD90A1020054A1020070B50600A9
:102E00008AB00C00150012285CD003D8052826D003
:102E1000002454E01B2800D16CE01F28F8D10122C7
:102E200007A928001FF03CFF032300284FD01C42B5
:102E300013D13B4B22689A420FD1012204A92000F2
:102E40001FF0D1FE0123079A00930599089B04986F
:102E500023F0D6FF334C002831D1334C2FE0012230
:102E600004A920001FF0BFFE2800012207A900F0DE
:102E7000A7FC069B002203936B464020197B0FF0B2
:102E800045FC01000600089817F0E0FB069BA168CE
:102E900003936B4641180500187BFFF78DFF059BD8
:102EA00004001A000499C068039326F026FC2A0047
:102EB0000598E36872431818079926F01EFC200055
:102EC0000AB070BD11002000FFF70AFFF7E7EA071C
:102ED0000DD41D4203D1154B2A689A4207D0032313
:102EE0002B40022BB9D1124B1D40062DB5D01148F5
:102EF00003F046F9012204A920001FF074FE01220C
:102F000007A928001FF0CCFE0028A6D0089B059A30
:102F100000930499079B300020F02AFB9AE7C046F3
:102F200090A10200ECC50200E4C50200C49E0200AC
:102F3000070080FF5B530300F0B5050087B00E006B
:102F4000012808D08B0726D10B68264A934202D06D
:102F5000254A93421FD1012203A930001FF0A0FE91
:102F6000002818D00022290040200FF0CFFB0100DC
:102F70000700049817F06AFB060001002800FFF71D
:102F80001BFF320004007A430399C06826F0B5FBAA
:102F9000200007B0F0BD300000F072FB071E00D02B
:102FA000471039002800FFF707FF00210400300018
:102FB00002F0C2FA00260090009802F01FFB031EE8
:102FC000E6D0002F04D119002000FFF7BFFEF3E781
:102FD000721C0192E168320028000FF037FD019E5B
:102FE000EAE7C04648DF020090A1020070B50E7902
:102FF00004000D00012E0DD1194924F06BFB3300A4
:10300000AA68E96820000DF0F1FF1649200024F0BD
:1030100061FB70BD3200144924F01DFCAB68002B2D
:10302000F3D01249200024F055FB0026AB68B342D0
:1030300004D80F49200024F04DFBE6E7002E03D012
:103040000C49200024F046FB3200E96828790FF093
:10305000C5FB01220100200000F028F90136E5E758
:10306000C60B0300120D0300D20B0300DD0B03009F
:103070009B510300FC09030070B5050086B0161EC5
:1030800044D0032480680C402BD1214B0A689A421B
:1030900027D103AA03F0A0FD002802D11D4803F0A8
:1030A0006FF8042E1AD12200297940200FF02EFB50
:1030B000049B06000093039B28790193019A009BCF
:1030C000991AFFF779FE0399049A0400521A714382
:1030D0007243EE68C068711826F00FFB200006B03E
:1030E00070BD0A0000230100286800F087FA020082
:1030F0002879042E04D1E9680FF070FB0400EDE795
:103100003300E9680FF0A2FC034CE7E71400E5E7A1
:10311000FCB40200E10B030038B2020037B50C002A
:10312000110000221D0000920123200012F096FEE3
:10313000002C05D121000120FFF73EFE040016E01F
:103140002968CB0705D48B0713D10C4B0A689A4228
:103150000FD1080000F07AF9010005000120FFF707
:103160002BFE2A0004000021C06826F0E2FA2000AD
:103170003EBD0120FFF7E0FEE0E7C046C49E02002E
:10318000F0B5060000248BB0194B1A48E1580BF03B
:103190001BFF03AFE05104341C2CF5D11423002491
:1031A000734301930025AB00F958134824F0FCF851
:1031B000013530001EF0E9FE072DF4D1013DAB00D2
:1031C0000D48F95824F0F0F830001EF0DEFE013D05
:1031D000F5D20134082C03D110F09CFD0BB0F0BDEA
:1031E00001231C42DED101981EF0CFFEDAE7C04673
:1031F000FCA102008CE602002C00002010B5192072
:10320000FFF7BEFF004810BD38B20200184BF7B5FB
:1032100030CB0F00160001281AD94B68154A93428B
:1032200007D0990711D114491C688C420DD11C009C
:103230001D0002280CD0BB68934209D09A0704D124
:103240000D4A19681C00914202D0002002F06AFF6A
:1032500001A938680EF0BCFB019A01000023102080
:1032600024F014FA2A003100230002F04FFDFEBDC5
:10327000802E002038B20200E4C70200074BC207CC
:103280000AD4074A074B0240062A05D00322064B00
:103290000240022A00D0036818007047C49E020052
:1032A000070080FFC4F40200DCB3020070B50D001B
:1032B000040016000BF0E8F82800FFF7DFFF836832
:1032C000002B04D0320029002000984770BD4268CE
:1032D0000249200024F0BFFAF8E7C046560D03006B
:1032E00010B50A0001000248FFF7E0FF10BDC0461C
:1032F00074EB0200F7B5050008000E0022F0F8F8A4
:10330000002810D001AA694630000AF057FE009B41
:10331000002B08D01749280024F0DCF9009CE71E98
:10332000A400002F09DA310028000222FFF7BEFFB7
:103330002800114924F0CEF9F7BD019B28001A1985
:1033400011000C3A08390B6812680C4924F083FA12
:10335000019B1B19043B1A68002A06D10649280064
:1033600024F0B8F9033F0C3CDBE70549280024F0C2
:1033700072FAF7E7140D0300C8300300380D03009C
:103380004D0D030010B50400FFF778FF054B0069F1
:10339000984203D0431E9841C0B210BD20001EF0D9
:1033A0004DFFFAE7ED12000070B505000C0001209A
:1033B0008D4203D0214B9D4201D1002070BD994226
:1033C000FBD001231D4204D01942F6D12B000D0081
:1033D0001C002A001A4B1A40062A05D0AA0711D150
:1033E000184A296891420DD12340062B05D0A30726
:1033F000E3D1144B22689A42DFD1210028000EF05D
:1034000097FADBE72340062BD7D0A30703D10D4B58
:1034100022689A42D1D02800FFF730FF8369002B41
:10342000CBD0220029001B2098470028C5D0064B8E
:10343000C01A43425841C0B2C0E7C04638B2020089
:10344000070080FFC4F40200ECC50200104B10B569
:10345000984219D00F4A0123904217D0184201D048
:10346000184110BD830706D10B4B02689A4202D166
:10347000FEF74CFEF5E71FF0FCFB08490200084888
:103480000AF0FCFCFEF79CFA0020EAE71800E8E7E7
:10349000E4C50200ECC50200C49E0200DB0C030080
:1034A000D4D4020010B5C30705D4830706D1054B59
:1034B00002689A4202D11FF00FF910BDFFF7C6FF54
:1034C000FBE7C046C49E02000F4B70B50D000124FF
:1034D000984204D100230B602300180070BD0B4BF1
:1034E000984201D10C60F7E70300234002D040105E
:1034F0002860F1E78207F0D1054A01689142ECD1DA
:10350000FEF704FEF4E7C046E4C50200ECC5020085
:10351000C49E0200184B10B5984228D0174B984211
:1035200027D0C30703D5401018F016FA10BD0323A7
:10353000184206D1124A0168914202D11FF0D5F813
:10354000F4E702001A40022A08D10E4A0240062A75
:1035500004D0FF22D20580189843E7E71FF089FBCB
:103560000949020009480AF089FCFEF729FA0020FF
:10357000DCE7FE208005D9E7E4C50200ECC50200C7
:10358000C49E0200070080FFC10C0300D4D40200D7
:1035900010B583070CD103680A4CA34202D121F075
:1035A00087FF10BD084CA34202D11FF0C4FAF8E710
:1035B0001FF05FFB0549020005480AF05FFCFEF7BB
:1035C000FFF9C046E4CE0200DC9F0200710C03004C
:1035D000D4D4020013B50C0001A9FFF7D9FF019B59
:1035E000A34206D02200034903480AF047FCFEF735
:1035F000E7F913BD940C03004CD50200F7B50500A4
:103600000C0017001E00D3070ED557100197019B21
:10361000002B1FDA1B190193002E1DD0002B15DA89
:10362000002301930198FEBD01A91000FFF74CFF94
:103630000028ECD138006C681FF01BFB220003004F
:103640000B490C480AF01AFCFEF7BAF9A342E9D973
:103650000194E7E7002EF9D1019B002B01DBA34287
:10366000E0D36A68044905480AF008FCECE7C04664
:10367000370C0300D4D402005B0C0300C8D1020055
:1036800010B50400830710D10D4B02689A420CD18B
:103690000C4B0340062B06D1C00820F01CF8430059
:1036A0000120184310BD8068F9E72000FFF7E6FD10
:1036B0004369181EF6D0210001209847F2E7C04662
:1036C00048DF0200070080FF164B70B504000020A1
:1036D0009C4203D0144DAC4201D1012070BD134B6C
:1036E00000209C42FAD001262640864203D060107A
:1036F000431E98410DE02000FFF7C0FD4369002BF9
:1037000009D0210030009847002804D0401B4342D4
:103710005841C0B2E2E72000FFF7B2FF0028DCD03A
:103720000138E5E7E4C50200ECC5020038B202004A
:1037300010B50400FFF7A4FF002809D120001FF0F6
:1037400098FA0449020004480AF098FBFEF738F999
:1037500010BDC046F30C0300D4D4020070B50400C1
:103760000D001600FFF78AFD036A002B05D032001A
:10377000290020009847002818D10D4D2000002E68
:1037800008D11FF076FA02000A4928000AF076FBF9
:10379000FEF716F9042E04D11FF06BFA0649020059
:1037A000F3E71FF066FA05490200EEE770BDC04678
:1037B000D4D402005B0D0300860D0300A70D0300A7
:1037C00010B51FF06DFA002802D1024802F0AAFCE1
:1037D00010BDC046120C0300002313B5044A046A4E
:1037E00009050093890C8A58A16B1FF0F0FA13BDEC
:1037F00048A20200F0B587B000931B7804000F00C8
:1038000002922A2B05D18268525C002A01D0A62A96
:1038100014D11A00213A022A2DD8A568E819037894
:10382000032B5CD104A966681FF09BFBAB1998427F
:1038300006D16760049920001FF0F7FA07B0F0BDC9
:103840000378032B4BD105A91FF08BFB009B1B7842
:10385000212B04D1049B059A13430493E6E7222B02
:1038600003D1049B059A5340F7E7232BDED1059B38
:10387000049A1340F1E71A00243A022A00D986E09C
:10388000A368D81901930378032B28D1636804A98E
:1038900003931FF066FB0600019B039A9B189E4250
:1038A000C7D0B378B01C7578032B18D105A91FF0C9
:1038B00058FB0600372D35D1059A1F2A0FDC4249E7
:1038C000049B114199420ADBC021090611418B4238
:1038D00005DB93400493049A53005340DCD5002247
:1038E0006368029DDB1B0193561CED0969D1019BA6
:1038F0000135DB09FCD102325219390020001EF0DB
:10390000A4FF0400009B029A1B7831001A33037055
:1039100001301FF0DEF9701C2018019A29001FF0F9
:10392000D8F98BE7392D08D1059B1F2B01DD1F230B
:103930000593049B059A1341CCE72F2D03D1049BDB
:10394000059A9B18C6E7302D03D1049B059A9B1A54
:10395000C0E7312D09D105990498FFF74FF80028E9
:10396000BDD1059B049A5343B4E7332DB7D00599D5
:10397000352D06D10029B2D004981FF0F0F804903C
:10398000A9E70029ABD004981FF0F9F8F7E7272B37
:10399000A5D1A368D8198378032BA0D1457802302C
:1039A0001FF0EEFA2F2D01D1049042E7302D06D101
:1039B000404243000490584000D43AE78FE7C043A8
:1039C000F2E7320090E7C046FFFFFF3FF0B597B047
:1039D0000890C020002560230AAC80000F0016006C
:1039E00025706360A56020F0D2FD2561E06065610F
:1039F000A561E5612762E562A84218D1C449C548BE
:103A000021F072FD0023060013930D9820F0E1FDD4
:103A1000002E00D1E1E10023BA6B396830000AF0D2
:103A200099FA380023F03FFE3000FDF7C9FF382235
:103A3000002E03D00232022E00D02A000026B64902
:103A40000096920052582000B96B33001FF0BFF966
:103A5000102020F08FFD102104001EF081FE0AAD21
:103A6000AB682A78002B00D194E1002AC6D1EA681D
:103A7000013BAB60DB00D318DA78A74992005258BB
:103A800002921A689D881202120A0592029ADB8835
:103A9000527806920F2206990A400492002D2DD0EA
:103AA00030220393069B1340102B29D0202B65D086
:103AB000002E00D047E10123069A1A400992099A84
:103AC00002992A405300CB1880215B884901079353
:103AD0001B0B1B038B4200D04DE13B000799403389
:103AE0001B780905090D8B4200D02BE1002A00D17B
:103AF00023E1380010F0DCF90135E0E76368CFE737
:103B0000002D01D0002E35D08022390052014031E5
:103B1000049BAB4201D80126A1E7029B6E009B19D2
:103B20005B88180B0003904213D108781B051B0D0E
:103B3000984221D121000AA81FF086F9002819D146
:103B40003B0040331B78052B00D03AE173497448A1
:103B500056E7049A6B1C934206D2039A0599009289
:103B60000AA8029A1FF033F9029B9E1971880AA8CD
:103B7000FFF732FE002672E70135C9E7002E0BD0B1
:103B8000029A6B009B5A1B0B032B47D1012120008B
:103B90001EF026FE00230370049BAB4242D8802017
:103BA0000026029B049A02335100C9184001994231
:103BB00071D1A368039A981800230493A2686368DC
:103BC000D318984272D3029B1B78052B01D00C2B83
:103BD00000D10126029B597840230B4058424341B3
:103BE00049B25B421E40002900DA01260025039BF2
:103BF0000695D0180795049B9D425ED1002E02D1F8
:103C0000079B012B69D0069920001EF04DFE029BF8
:103C1000059A03992000FFF7EDFDABE7012D00D8D1
:103C200079E78DE78021029B6E009E197388490118
:103C30001A0B12038A4225D13A0040321278DBB2C5
:103C40009A421BD1072A07D1B96CF86C03F040FFE8
:103C5000010020001FF0B1F8002D0AD1029B5B7813
:103C60007F2B06D90E9B2000591C06930E911FF046
:103C7000DCF8380010F01CF901358DE7002D00D17B
:103C800049E75DE7039A6B1C00920599029A0AA81E
:103C90001FF09DF86AE71A88150B2D03854203D1A2
:103CA000D2B2062A00D90126023380E7049B012103
:103CB000013304931FF030F880E7069A037801324D
:103CC0000692002B04D0079B013307930023069331
:103CD00001211FF021F801358DE7A268039B94466E
:103CE00063441D00049B9E4200D143E72B78002BC8
:103CF00007D1A3680122E91A20001EF0DDFD01367C
:103D0000F0E7280001211FF007F80500F7E7C0469B
:103D1000D40D0300B8D2020048A20200FC0D03003B
:103D20008CD10200012D00D1F5E601232A001A40B2
:103D30002ED0049A032A0DD002E721000AA81FF012
:103D400083F8D9E60135049B022BEBD10023012D2A
:103D500000D1E0E6069A691ED20705D5029A92883C
:103D6000120B012A00D16908012900D04FE7002B6E
:103D700000D1FFE64BE7039A059900920AA86B1C55
:103D8000029A1FF024F807990AA8FFF725FD66E6B6
:103D90001300DFE7002A00D030E63B0040331E78F6
:103DA000002E00D0CCE66368002B00D1C8E62B695A
:103DB0002000591C1FF039F8A3686B62EB69AB62F5
:103DC00023E6022B01D10A49C1E60A3B09480A4908
:103DD000012B00D814E6094912E6380023F063FCF1
:103DE000089A13AB13CB13C2089817B0F0BDC046A6
:103DF0000E0E03005CD40200420E0300690E0300A5
:103E0000C3790248002B00D101487047ECC502007D
:103E1000E4C5020010B502F0E9F9014810BDC04642
:103E200038B2020010B5086802F0E0F9004810BD91
:103E300038B2020073B50D00022836D1012601A95F
:103E400068680DF0C5FD76423400019BC3188342BB
:103E500012D101A928680DF0BBFD73427341624283
:103E60006241DBB2D2B2019902F004FB002820D1FA
:103E7000104911481FF05AFA0278722A01D0772AA5
:103E800006D1611C0ED1723A544254410130DEE732
:103E9000622A01D0742A05D1711C03D1743A5642AA
:103EA0005641F3E7054801F079FF012676423400D8
:103EB000CFE776BD8E0E03006CD30200810E0300A7
:103EC00010B50400082020F055FB024B446003604D
:103ED00010BDC04614A6020070B505000C200C00F1
:103EE00020F048FB024B45600360846070BDC04613
:103EF00050A602001FB5002303AA10700448517099
:103F0000009380210233006813F0ACFE05B000BDC1
:103F10006C2A00207FB5002503AC0A4E2580207056
:103F20000095220001238021306813F09BFE00954C
:103F3000012322008021306813F084FE207804B031
:103F400070BDC0466C2A0020D0B517F005FD011CDD
:103F5000194816F0FDFFFE21890517F003FB19F043
:103F6000D5FA0022154B17F081FD19F0CFFB0600A2
:103F700000200F00FFF7CEFF6F23102103401943ED
:103F800004000020FFF7B6FF3900300019F04EFAA8
:103F9000C1B2FE20FFF7AEFF21000020FFF7AAFF0D
:103FA000052025F016FA802149422143C9B200209C
:103FB000FFF7A0FFD0BDC04620BCBE450000E03FDB
:103FC0001648174B10B5002418601E234471037166
:103FD000144915F09BFA21002000FFF78BFF210008
:103FE00020001FF094F804210120FFF783FF012136
:103FF0002000FFF77FFF052025F0EBF92000FFF7F9
:1040000089FFEF2101402000FFF774FF052025F014
:10401000E0F93220FFF798FF034810BDE4290020A3
:104020006C2A0020A086010038B2020010B50400FE
:104030000800FFF70BFA011E06D12C222078FF3270
:104040001FF07BF80A4810BD03005A33B42BF9D88F
:104050005A209623411A503848439B00C0180549FE
:10406000000316F07DFB002102002078E8E7C0463F
:1040700038B20200204E000010B504000800FFF71F
:10408000E5F917F069FCFF21890516F061FF17F0CB
:1040900043FCC8235B00984205DC873BFF3B584349
:1040A00096239B00C01819F0F7F9084B084A18F03E
:1040B00003FC19F0BBF90749000316F051FB00217E
:1040C000020020781FF039F8034810BDCCCCF03F37
:1040D000CDCCCCCC204E000038B2020010B504008C
:1040E0000800FFF7B3F9C8235B00984205DC873B63
:1040F000FF3B584396239B00C01819F0CDF9084B9D
:10410000084A18F0D9FB19F091F90749000316F095
:1041100027FB0021020020781FF00FF8034810BD94
:10412000CCCCF03FCDCCCCCC204E000038B202003D
:10413000F0B54B6885B088680C000F680193FFF7F5
:1041400085F90290E068FFF781F903902069FFF795
:104150007DF9029B4E4906001D018D4200DA0D00DB
:104160004C4B9D4200DD1D00039A14018C4200DA85
:10417000474C9C4200DD474C3878022302009A43AA
:104180000C2A11D1029B002B5DDB2A0000211EF0BE
:10419000D4FF00221100387801301EF0CEFF002E2F
:1041A00002DD30001DF0F1FE019B187802230200B1
:1041B0009A430C2A12D1039B002B4DDB22000021D5
:1041C0001EF0BBFF00221100019B187801301EF089
:1041D000B4FF002E02DD30001DF0D7FE3878022338
:1041E00002009A43082A11D1029B0130002B3DDBCB
:1041F0002A0000211EF0A1FF0022110038781EF0D5
:104200009CFF002E02DD30001DF0BFFE019B1878E0
:10421000022302009A43082A12D1039B0130002B8B
:104220002CDB220000211EF088FF00221100019BE0
:1042300018781EF082FF002E02DD30001DF0A5FE72
:10424000154805B0F0BD002211001EF076FF387849
:104250006A4201300021A0E7002211001EF06DFF2C
:10426000019B6242187800210130B0E70022110062
:104270001EF063FF6A4238780021C0E70022110077
:104280001EF05BFF019B624218780021D1E7C04617
:1042900001F0FFFFFF0F000038B20200F8B5050083
:1042A00008001400FFF7D2F807002000FFF7CEF84F
:1042B000254B06003C019C4200DA1C00234B9C422B
:1042C00000DD1C002878022302009A430C2A10D13A
:1042D000002F27DB220000211EF02FFF00221100FB
:1042E000287801301EF029FF002E02DD30001DF07D
:1042F0004CFE2878022302009A43082A10D101308C
:10430000002F18DB220000211EF017FF00221100F1
:1043100028781EF012FF002E02DD30001DF035FE61
:104320000B48F8BD002211001EF007FF28786242FA
:1043300001300021D6E7002211001EF0FEFE62428D
:1043400028780021E5E7C04601F0FFFFFF0F0000DD
:1043500038B2020010B50F280BD8064B0A019A425A
:1043600000DA1A00044B9A4200DD1A0000211EF008
:10437000E4FE10BD01F0FFFFFF0F000010B5284A5A
:104380000400082826D1002913D026490B201EF04E
:10439000D4FE244A012109201EF0CFFE224A2349DF
:1043A0000A201EF0CAFE2000204A1F491EF0C5FE4A
:1043B00010BD1C491EF0C1FE1A4A01210A201EF040
:1043C000BCFE194A194909201EF0B7FE174A1649C2
:1043D0000B20EBE7002911D012490C201EF0ADFE96
:1043E000104A01210E201EF0A8FE0F4A0F490D2091
:1043F0001EF0A3FE0D4A0C490F20D7E709490F20F4
:104400001EF09BFE074A01210D201EF096FE064A73
:1044100006490E201EF091FE044A03490C20C5E710
:10442000FF0F0000FF070000FF0B0000FF0300006C
:1044300070B504780800FFF709F82500060001218F
:10444000002800DC00212000FFF798FFA020B42105
:1044500080014900704316F083F91DF096FD043485
:10446000A54205D028000021FFF774FF0135F7E7CA
:10447000004870BD38B20200A3230021024A5B004D
:104480000248D1527047C046802E002038B2020048
:10449000A3230121024A5B000248D1527047C04663
:1044A000802E002038B20200A323044A5B00D35AB6
:1044B0000348002B00D103487047C046802E0020DF
:1044C000ECC50200E4C5020010B509F04BFA014842
:1044D00010BDC04638B2020010B50C4C002808D1FF
:1044E000FC34236D18005A1C02D018011EF0B7F8D6
:1044F00010BD0868FEF7AAFFFC34031E044803DA67
:1045000001235B422365F3E71B09FBE7802E0020B4
:1045100038B202000523020070B5094C094D20682D
:10452000434309489B189B0018582B682260C01809
:104530000F23194009012860FEF780FB70BDC046BB
:10454000702A0020A42A002024A80200A839030011
:1045500000B5080006292ED816F064F8040A1016D3
:104560001B2128009A18E223DB00D218107800BD26
:10457000C4329200D05C8006800EF8E7C43292000C
:10458000D05AC004400EF2E7C4329200D058000363
:10459000F8E7C43292009A1890780009E7E7C4322D
:1045A00092009A18D0780007000FE0E7C43292001A
:1045B0009A18D078F1E7024B024A00201A60D6E739
:1045C00024000020AB0E0300A83910B50400080039
:1045D000062949D816F026F8040A141F2A343F0089
:1045E000E221A218C9005218137010BD3F210B40E0
:1045F0001800C4329200135D8B4303431355F4E754
:104600007F21C432920019401948135B890103408D
:104610000B431353E9E77F21C4329200194010592C
:10462000144B490303400B431351DEE70F20C43200
:104630009200A2181901937803400B439370D4E7BA
:104640000F210B401800C4329200A218D3788B437C
:104650000343D370C9E70F20C4329200A218D17867
:104660001B0101400B43F4E7034B044A1A60BCE70B
:104670003FE0FFFFFF1FF0FF24000020C90E0300F2
:10468000F0B5D2B285B00E000293072113000B40A3
:10469000013BDBB2042B02D9294C2A4D25608A4309
:1046A0001F02002A24D1284B3578C45C274B2409EB
:1046B000E443E4B22D1BDB19EDB203930827631921
:1046C000039ADBB2D35C5A00D2B25BB20192002BE8
:1046D00033DA1A210320013FFFB2FFF71BFF019BD2
:1046E000002FF0D10134E4B2002CE7D135701AE08C
:1046F000D4431749E4B2CE5C0825144B1B19DB5D8B
:104700005A00D2B25BB20192002B0FDA05210220CF
:10471000FFF700FF013DEDB2019B002DF0D1013408
:10472000E4B2002CE8D1029805B0F0BD31000120C0
:10473000FFF7F0FE002EE9D0ECE706210420CAE7DF
:1047400024000020B60E03001907000041140300E6
:104750009C1A03000022F0B505000F00FF200F2473
:104760008BB008AB654EDA710100C431890069185D
:104770008B781A09B25C234012011343CA788B70FC
:1047800013071B0FF35CA243234013431A09B25CC7
:10479000234012011343CB700138E5D2E223DB0042
:1047A000EE5CB308F31ADBB20493554B1B68002B85
:1047B0000BD0E222C4218120D200890000013B00FD
:1047C000AA186918281809F057FC002448230294F5
:1047D00003930194009481222B1912019B181B78DA
:1047E000180005930723984320D008A92300059AB1
:1047F00007312800FFF744FF0230C4B2023FFFB286
:10480000002F78D02B780393013EF6B2002E47D1CB
:10481000E2222B19D2009B181E78B308F31ADBB2E0
:1048200004930023029301930093D4E7354B009A3D
:104830009C469A5C2300C4339B00EB1899780909C5
:104840000A4331498A5C019907926246DB78525CDF
:104850001907090F0A432C491B098A5C2B49069248
:10486000029A8A5C06991343079A8A182649C95CFA
:1048700001238918FF2A00DC031CC91888230906B4
:104880001B06C918090F0020FFF744FE039B013BDC
:10489000DBB20393002BB7D10134E4B2013FAEE7A2
:1048A000049B013BDBB20493002B02D1059B002B40
:1048B00018D12200C4329200535D00999B069B0ED2
:1048C000CB18DBB20093535B0199DB045B0ECB1872
:1048D000DBB201935359029A1B035B0ED318DBB270
:1048E000029378E708A92300059A07312800FFF70B
:1048F000C7FE04008CE70BB0F0BDC046C50F030037
:104900003C2B0020911903009D110300411303006B
:10491000064B1B5C002B05D0054B185C4843C011AF
:10492000C0B27047034B185CFBE7C046ED120300B2
:104930006611030026100300064B1B5C002B05D0FC
:10494000054B185C4843C011C0B27047034B185C5C
:10495000FBE7C046ED120300A11A03007610030026
:10496000F0B5037A8DB004007F2B00D157E103002E
:10497000070000250933FF330837099301953E7876
:104980007F2E00D087E000230693019306998B00C9
:10499000E31803931A7A481C1B7BC0B206907F2B46
:1049A00000D11BE19F49CE5C8D5C9F49AE4200D097
:1049B000F1E08D5CCB5C0493039B597A019B591801
:1049C000CBB20193049BEB18DBB20793023B1B06AF
:1049D000DCD4A827019B5D1BEBB20593A82F00D068
:1049E000E1E0039B039A5B7A527B5B0852089918BB
:1049F0000291019901988A18E221C31AD2B2DBB25E
:104A0000C900A218E31852185B18157818782D1AE7
:104A1000EDB27F222B006DB293430893EB17E81899
:104A20005840029915F082FF2800CBB202990993F1
:104A300015F096FE059A00251600C3B20A93029B54
:104A40009B18DBB20B93320039002000FFF77EFD8C
:104A50000A9B01360B9AC018F6B2C3B2964200D137
:104A6000B6E0099AAD18029AEDB2AA420DD8AD1A75
:104A700020216A4652181278EDB252B2002A00DAAA
:104A8000A4E0002B01D00133DBB23200390020005A
:104A9000FFF79AFDD7E7012E77D12B003100019A5D
:104AA00020001EF0C6FBBA78604BA1789B185B789B
:104AB00030000193FB780893FFF72AFF3F23E1784A
:104AC000034030000293FFF737FF7F22584B9B5D76
:104AD0001A40584B03929A5D0F231A400492564A8B
:104AE000925D1A400592554A925D1A4006923F2205
:104AF000534B9B5D07937B78EB18DBB20A93029BC9
:104B0000134002937F23184083019C462A003F21D3
:104B1000C4329200135D0F268B4302990B43135549
:104B2000135B48490B4061460B431353039B1059D9
:104B30005903454B03400B430498190C31400001C5
:104B400013510843A21890701B0E0598B3430699A1
:104B5000034309011E400E43D67081226319079951
:104B600012019A181170E222D2009B180899019A3A
:104B7000013552181A700A9BEDB29D42C6D1099BAD
:104B80000437BB4200D0FAE6FDE6022E8BD12B00A3
:104B9000019AFF2184E72D48AE4201D9C55C09E79F
:104BA0008D5C835C07E7049B019A39009A18D2B2A6
:104BB0002000FFF7CBFC059A050039002000FFF725
:104BC000C5FC079B2D1AEDB2029322E7013B5BE780
:104BD0000137FFB2AF2F00D000E7D7E602318900DE
:104BE0006118019B497859186368C9B2002B13D129
:104BF000E22381221648DB001201E318A518001BEE
:104C00001A18C4329200125D1E789206D20EB21AA1
:104C10001A7001339D42F3D12000FFF79BFD0DB0C8
:104C2000F0BDC046D60F03009D120300911A030089
:104C3000C6100300D50E0300250F0300750F0300F7
:104C4000411903003FE0FFFFFF1FF0FF16110300B3
:104C5000F0F8FFFFF7B545681600A8681F0001913E
:104C600020F0BDFC0400A86820F0BFFC20F0B7FCD9
:104C70000300032058430734001980001FF07AFC1A
:104C8000074B040003606B683200436000238560BB
:104C9000C36001993B00083009F066FA2000FEBDB0
:104CA000B4B1020070B5050088680C0022F072FBF8
:104CB000230002000249280022F0CDFD70BDC0464D
:104CC000F81A030010B5024820F001FCFCF778FE4A
:104CD00020D4020010B5040008201FF04BFC024B4A
:104CE0004460036010BDC046F0B10200F7B5C5686E
:104CF00004001E00002D02D11D602800FEBD0369C6
:104D00001830834205D1184B994203D0174801F05F
:104D100009FA19602000164F11007B6808300193D2
:104D200063687B6004F0F6F8019B05007B60012856
:104D300007D002280CD00023E36023691B6833608E
:104D4000DBE723691B683360002BD6D1E360D4E72F
:104D5000A368986820F043FC002305308000E360DE
:104D600024186368EBE7C04638B20200161B030044
:104D7000802E002013B501ABFFF7B8FF01280ED03D
:104D8000104C02280DD0019BA34219D0002B17D044
:104D900001AA01210C4820F094FBFCF711FE0198B8
:104DA00016BD0198FEF76AFA0749FCF78FFB002849
:104DB00001D10198F1E7019809F02CF8A042F8D14F
:104DC0000020EDE738B2020020D4020010B50B003D
:104DD000022808D14A6805491868FFF7CBFF002868
:104DE00003D1FFF76FFF8A68F5E710BD38B2020004
:104DF00010B500220149FFF7BDFF10BD38B2020017
:104E000013B5114C01AB114A2100FFF76FFF0128C8
:104E100003D0022805D0200016BD0D490D481EF014
:104E200085FA0198FEF72AFA0B49FCF74FFB002898
:104E3000F1D10198FEF722FA0849FCF747FB002858
:104E4000E9D10198FCF7BCFD38B202008CCF02001A
:104E5000D81A0300E4D3020014D1020020D40200C7
:104E60008022044B52001A600123034A1360034A54
:104E70001360704700E100E00C8C004000800040AF
:104E80008022054B5200DA67044BFF3A5A60002239
:104E9000034B1A607047C04604E100E00080004008
:104EA0000C8C004070B5002501261E4B1E4C1D6069
:104EB0001E4B18601E4BE650C046FFF7E1FF1D4B2E
:104EC0001D4AE660E25002221C4BFF20E5500433ED
:104ED000E25008339218E250C12380229B00120353
:104EE000E250053BFF3BE550C2244022144BA40096
:104EF000195981430A4380211A510C341A59090661
:104F00001202120A0A431A51C02204341959814369
:104F10000A431A51802212041A60802252041A6035
:104F200070BDC0467C2E002000800040842A0020F6
:104F3000FC0F00004C050000701700000405000085
:104F400000E100E070B51F4C1F4D636C002B0AD0D0
:104F5000002363641D4B1B689847A823DB00EA58B5
:104F600000018018E850A36C002B09D00023A36433
:104F7000164B5B689847164B0001EA588018E850BA
:104F8000E36C002B0AD00023E364104B9B68984726
:104F9000A923DB00EA5800018018E850236D002B9C
:104FA0000ED000230B4A2365AB580B495B18AB505E
:104FB0000A4A1368063313608022094B12045A60B0
:104FC00070BDC046FC80004000800040080000200A
:104FD000440500004C050000701700007C2E0020E6
:104FE000FCE100E0F7B50191032823D8134B8000C2
:104FF000C758C223124D9B00EF500123441923646C
:10500000A8230F210F4EDB009C46E358AE59921B9C
:10501000D218D3170B409A1801990B4B1211C1509B
:10502000C1239B00EF506346002001321201961904
:10503000E650FEBD01204042FBE7C0462CB2020014
:10504000008000404C0500000800002003280BD819
:10505000074B8000C158C223064A9B00D150064B23
:10506000064AC2500020704701204042FBE7C0467C
:105070002CB20200008000400800002091320200A3
:1050800010B5024B1B68984710BDC046842A00200B
:1050900010B50024054AA1008B58002B02D0002037
:1050A000885098470134042CF4D110BD742A002094
:1050B000074A89008B58002B06D1885080211800A0
:1050C000044A49045160704701204042FBE7C04652
:1050D000742A0020FCE100E010B5024922F0FAFA3F
:1050E00010BDC0464C1B030070B502F0B3FC0F4C62
:1050F0000F4B0025A3620F4BE5626363230025631A
:10510000A83303210C481D60A56405F091FE0B4EE9
:105110000121300005F08CFE3000094A09491FF0DA
:10512000A3F926606660E56570BDC046802E00204C
:1051300040D20200DCCE0200B82E0020CC2E00208F
:105140006E1000007E10000070B50624134EC300E0
:105150001C437368002205002100181DFCF734FA77
:10516000021E18D1F06D002807D004302100FCF792
:105170002BFA002801D0406870BD002221000848A9
:10518000FCF722FA021E06D12A000649064808F05A
:1051900075FEFCF715FC5068EEE7C046802E002037
:1051A00098ED0200361C0300F4D202000A4B10B541
:1051B000040018685B6898420AD00621E30019438E
:1051C00004300022FCF700FA002801D0406810BD2E
:1051D0002000FFF7B9FFFAE7802E0020074B10B53B
:1051E000D86D002801D1064810BD043000220549C1
:1051F000FCF7EAF90028F6D04068F5E7802E002099
:1052000060EC0200D60F00000A00C100062010B5B5
:10521000024B014318681FF027F910BD802E0020B3
:10522000062110B5034BC000014318681FF026F992
:1052300010BDC046802E00200A00C100062010B517
:10524000024B014358681FF00FF910BD802E00205B
:10525000062110B5034BC000014358681FF00EF93A
:1052600010BDC046802E002037B505000C00062872
:1052700006D10800FEF728FA00280DD02C483EBDC4
:10528000CB071BD54B10042816D815F0CBF9031506
:105290004E4E0700002BF1D02648F0E7C022120640
:1052A000934204D18020C0051DF0D9F9E7E75B42A5
:1052B0005B0001201843E2E7DB43F9E702281AD13B
:1052C0001D4B0B40062B08D08B0714D10A681B4BD3
:1052D00092699A420FD1486802E0C8081EF0F6F9B8
:1052E000002806D101A920000BF054FF019902F01B
:1052F0009FFB4300DDE72000FDF7C0FF4369002B63
:105300000DD10F4BAD002000ED581DF0B2FC2A006E
:1053100003000C490C4808F0B1FDFCF751FB2100DB
:10532000280098470028AAD1EBE70800A7E7C04665
:10533000E4C50200ECC50200070080FF6D1F0100FC
:10534000B49C0200C21C0300D4D40200F7B50400D0
:10535000019116001F00FDF791FF0569002D09D18D
:1053600020001DF086FC06490200064808F086FD74
:10537000FCF726FB3B00320001992000A847FEBD48
:105380001F090300D4D40200F8B50E0015001C005C
:10539000930714D113681F4A934202D16B682360AC
:1053A000F8BD1D4A934207D1002802D0FDF766FFE1
:1053B00006006B6848C4F3E7184A934201D12560A0
:1053C000EEE75A68022117008F43992189008F4226
:1053D00002D013498A42F2D1002817D1114A9342D0
:1053E0000BD0114A934208D0104A934205D0104A7C
:1053F000934202D00F4A934208D10C201FF0BAF812
:105400000D4B4660036085602060C9E725606060E1
:10541000C6E7C046009C0200C49B0200789C0200C4
:1054200039020000F4E7020030E802006CE80200F4
:10543000A8E80200E4E8020080B20200F8B5002308
:105440001360536006000D001400FDF717FF124BA8
:1054500007009D4205D1836A002B02D00F4B48C440
:10546000F8BDFB69002B04D02200290030009847CA
:10547000F6E7B86B0028F3D00621ED00294304308D
:105480001A00FCF7A1F80028EAD04268230039008E
:105490003000FFF779FFE3E71102000028ED02007A
:1054A00070B5160004000D00FFF7C8FF3368002B2D
:1054B00015D10B4EA3070BD10A4B22689A4207D194
:1054C0002B0062680849300008F0D8FCFCF778FA35
:1054D00020001DF0CEFB2B0002000449F3E770BD55
:1054E00024D00200789C02004F1C0300761C0300AD
:1054F00073B504000D001600FDF7C0FEC369002B54
:1055000009D004220196009229006A46200098479B
:10551000009B002B0AD020001DF0ABFB2B000200EB
:105520000349044808F0AAFCFCF74AFA73BDC046D8
:10553000761C030024D0020073B504000D00FDF7B3
:105540009DFE174B426A06009A4226D0002D03D1D9
:1055500010201FF00FF80500736A002B12D1812173
:105560006A4689002000FFF769FF009B002B0FD1DE
:1055700020001DF07EFB0B4902000B4808F07EFC6A
:10558000FCF71EFA2900200098470028E7D076BDD6
:10559000290068460EF07EF8F9E72000F7E7C046DC
:1055A0009F2C0200E51B0300D4D4020037B5040091
:1055B000FDF764FE856A002D02D02000A8473EBD9D
:1055C0006A460B492000FFF739FF009B002B05D0EE
:1055D0006A46290028001DF06DFEF0E720001DF04E
:1055E00048FB04490200044808F048FCFCF7E8F9CD
:1055F00011020000171C0300D4D4020030B50500CE
:105600008FB008F041FF2800FDF738FE846A002CB7
:1056100005D02800A047040020000FB030BD6A4626
:1056200013492800FFF70AFF009B002B16D002A8A1
:10563000FCF7A0F9002807D16A4601001DF03AFEE8
:105640000400FCF7B5F9E7E7039B0A491868FBF784
:105650003DFF0028E0D10398FCF7B2F928001DF0C7
:1056600008FB05490200054808F008FCF4E7C046BD
:105670001102000020D40200171C0300D4D4020041
:10568000F0B513688FB00793002800D073E00400D2
:10569000131D0393FF220B00090A134011400193CD
:1056A0004B000693069A019B05919B18039A9B0059
:1056B000D2580492039AD3185F68381E09D000208C
:1056C000BB0706D1944B3A689A4202D138001EF0CB
:1056D000C8FE059B1818049B4600002B50D1019B67
:1056E000581C8319980000931EF044FF2600050003
:1056F000002C01D001260460019BB0009A002818FC
:10570000039923F0FAFF019B9B190293029B9800D7
:10571000059B2818DA00019B9900039B591823F078
:10572000ECFF029A069B944663440193002F12D02B
:1057300003243C4000D0A9E0774B3A689A4200D05D
:10574000A4E038001EF0A5FE032306000093736852
:105750009C4200D27DE0019B029A02999A1A52085B
:105760002B000798FFF7F2FD040028001EF031FF20
:1057700020000FB0F0BD130008330393546889E78D
:10578000049B9B072FD1049B644A1B68934202D061
:10579000634A934227D10AAA09A90498FDF7F8FEA3
:1057A000099B581C019BC0188319980000931EF098
:1057B000E1FE26000500002C01D001260460019BBB
:1057C000B0009A000399281823F097FF019B0A99CB
:1057D0009819099B80009A00281823F08EFF019BDE
:1057E000099A9B1890E7019B181D83199800009354
:1057F0001EF0C0FE26000500002C01D0012604602A
:10580000019BB0009A000399281823F076FF019BB2
:105810000AA99B1904980293FFF78EFE029B04903D
:105820009C000498FFF7EAFE061E00D16EE7009B7D
:10583000029A934207D8D90028001EF0B9FE05004D
:10584000009B5B000093029B2E51013302930434B2
:10585000E7E7B368E700D859002815D0042813D02B
:10586000009B184205D12F4B02689A4201D121F0CA
:1058700021FC019B019A9B00E85002320192B26820
:10588000EB18D7197A685A60013460E70AAA2649EA
:105890003800FFF705FE00210AAA08001DF00AFDE6
:1058A0000021FFF749FE019B03909E000398FFF73C
:1058B000A5FE041E00D14EE7019B009A01339A42D7
:1058C0000BD853000093042B01D204230093009BB8
:1058D000280099001EF06CFE050003231C4207D12E
:1058E000104B22689A4203D1200021F0E3FB040010
:1058F00081210AAA89003800FFF7D2FD0AAA0021F7
:1059000001200C941DF0D6FC019BAC510233019395
:10591000AB1958600836C9E7E4C70200E4CE0200BC
:10592000DC9F0200C4F402008A02000070B50C0083
:1059300086B0160083071CD10368204A934202D028
:105940001F4A934215D102AA01A9FDF721FE019B2E
:10595000A3422CD31BD80023029DA000A34201D157
:1059600006B070BD9900421A043AAA580133725029
:10597000F4E702A9FFF7E0FD002305000193019B76
:105980002800A34206D3FFF739FE0028E8D0220002
:105990000C490EE0FFF732FE002808D0019A0A49B0
:1059A000A31A5B189B00013298510192E7E7019A14
:1059B0000649074808F062FAFCF702F8E4CE020054
:1059C000DC9F0200031D0300FFFFFF3FE01C0300FC
:1059D0004CD50200F7B5FF240E00090A2640150039
:1059E0000C40830731D10368384A934202D0384AC9
:1059F00093422AD101AA6946FDF7CAFD00983319DE
:105A000083425BD883009C46002301999A00A342FD
:105A10000FD1B400801B0919C01AAD181DF074F81D
:105A2000019B28601C190023013601339E4207D1D7
:105A3000F7BD6746BF1A043FCF590133AF50E5E7C2
:105A40009A0051426158A950EFE70021FFF774FD19
:105A5000002307000093009BB34218D300210800E5
:105A60001DF052F806003800FFF7C8FD011E1BD1DB
:105A7000B168A14222D3A3008A00EB181E60AA18C5
:105A8000091B9D4214D130001DF05AF8D0E73800B0
:105A9000FFF7B4FD002811D0009AB31A1B199B0020
:105AA000013258510092D6E73000FCF70DFDDAE7DD
:105AB000F468D01A2058043B1860E2E7009A0549C0
:105AC000054808F0DBF9FBF77BFFC046E4CE020097
:105AD000DC9F0200E01C03004CD50200F0B591B041
